S017000041544D5F53595354454D5F4D4355322E7372656371
S11300000C942A000C9434000C9434000C943400A6
S11300100C9434000C9434000C9434000C9434008C
S11300200C9434000C9434000C9434000C9434007C
S11300300C9434000C9434000C9434000C9434006C
S11300400C9434000C9434000C9434000C9434005C
S11300500C94340011241FBECFE5D8E0DEBFCDBF21
S11300600E9436000C944E010C9400000E9445013D
S11300700E948C0080E00E94950081E00E94AD0007
S1130080C0E00EC08C2F0E944A018C2F90E00E9489
S11300904C0183EC99E00197F1F700C00000CF5FB9
S11300A0CF3F81F70EC08C2F0E944A018C2F90E025
S11300B00E944C0183EC99E00197F1F700C0000025
S11300C0C150C111F0CF81E00E94950080E00E94F0
S11300D0AD000EC08C2F0E944A018C2F90E00E942C
S11300E04C0183EC99E00197F1F700C00000CF5F69
S11300F0CF3F81F70EC08C2F0E944A018C2F90E0D5
S11301000E944C0183EC99E00197F1F700C00000D4
S1130110C150C111F0CFAECF6FEF81E00E94350125
S11301206FEF83E00E943501089581110BC041E017
S113013060E081E00E94C50040E061E081E00E944F
S1130140C500089541E061E081E00E94C50040E0FF
S113015060E081E00E94C500089581110BC041E078
S113016063E083E00E94C50040E066E083E00E9413
S1130170C500089540E063E083E00E94C50041E0CB
S113018066E083E00E94C50008954130A1F5813006
S113019089F028F08230C9F0833011F108952BB32F
S11301A081E090E002C0880F991F6A95E2F7822BE4
S11301B08BBB089528B381E090E002C0880F991F9B
S11301C06A95E2F7822B88BB089525B381E090E01D
S11301D002C0880F991F6A95E2F7822B85BB0895A8
S11301E022B381E090E002C0880F991F6A95E2F77C
S11301F0822B82BB0895411137C0813091F028F0E1
S11302008230D9F0833029F108952BB381E090E056
S113021002C0880F991F6A95E2F7809582238BBBF1
S1130220089528B381E090E002C0880F991F6A9571
S1130230E2F78095822388BB089525B381E090E09E
S113024002C0880F991F6A95E2F78095822385BBC7
S1130250089522B381E090E002C0880F991F6A9547
S1130260E2F78095822382BB0895813041F028F023
S1130270823039F0833039F008956ABB089567BB42
S1130280089564BB089561BB08958AE683BF8CE634
S113029085BD08958CBF089583BD0895F894FFCF5C
S9030000FC
