:100000000C942A000C943F000C943F000C943F0089
:100010000C943F000C943F000C943F000C943F0064
:100020000C943F000C943F000C943F000C943F0054
:100030000C943F000C943F000C943F000C943F0044
:100040000C943F000C943F000C943F000C943F0034
:100050000C943F0011241FBECFE5D8E0DEBFCDBF1A
:1000600010E0A0E6B0E0E4E7F3E002C005900D92F6
:10007000A036B107D9F70E9441000C94B8010C9446
:1000800000000E9468010E94A90060E875E280E01B
:1000900090E00E9471010E949201843661F560E057
:1000A00081E00E94B60061E082E00E94B600C0E0FC
:1000B0000EC08C2F0E946D018C2F90E00E946F016A
:1000C00083EC99E00197F1F700C00000CF5FCF3FCC
:1000D00081F70EC08C2F0E946D018C2F90E00E9442
:1000E0006F0183EC99E00197F1F700C00000C15067
:1000F000C111F0CFD0CF873771F661E081E00E9467
:10010000B60060E082E00E94B600C0E00EC08C2F16
:100110000E946D018C2F90E00E946F0183EC99E0AA
:100120000197F1F700C00000CF5FCF3F81F70EC00D
:100130008C2F0E946D018C2F90E00E946F0183EC48
:1001400099E00197F1F700C00000C150C111F0CF54
:10015000A2CF6FEF81E00E9458016FEF83E00E9411
:1001600058016FEF80E00E94580108958130B1F48A
:10017000611109C041E00E94E80040E061E081E0D7
:100180000E94E800089541E061E081E00E94E800FB
:1001900040E060E081E00E94E80008958230B9F418
:1001A00061110BC041E063E083E00E94E80040E0A1
:1001B00066E083E00E94E800089540E063E083E0A9
:1001C0000E94E80041E066E083E00E94E8000895B4
:1001D0004130A1F5813089F028F08230C9F08330B8
:1001E00011F108952BB381E090E002C0880F991FB0
:1001F0006A95E2F7822B8BBB089528B381E090E0EB
:1002000002C0880F991F6A95E2F7822B88BB089578
:1002100025B381E090E002C0880F991F6A95E2F74C
:10022000822B85BB089522B381E090E002C0880F45
:10023000991F6A95E2F7822B82BB0895411137C05E
:10024000813091F028F08230D9F0833029F108957F
:100250002BB381E090E002C0880F991F6A95E2F706
:10026000809582238BBB089528B381E090E002C083
:10027000880F991F6A95E2F78095822388BB0895BD
:1002800025B381E090E002C0880F991F6A95E2F7DC
:100290008095822385BB089522B381E090E002C05F
:1002A000880F991F6A95E2F78095822382BB089593
:1002B000813041F028F0823039F0833039F00895F0
:1002C0006ABB089567BB089564BB089561BB089538
:1002D0008AE683BF8CE685BD08958CBF089583BDF3
:1002E000089522E02BB928E12AB926E820BDDC01D7
:1002F000CB01880F991FAA1FBB1F880F991FAA1F28
:10030000BB1F9C01AD01220F331F441F551F60E02E
:1003100074E284EF90E00E9496012150310930BDD3
:1003200029B908955F9BFECF8CB10895A1E21A2EE2
:10033000AA1BBB1BFD010DC0AA1FBB1FEE1FFF1F89
:10034000A217B307E407F50720F0A21BB30BE40BD9
:10035000F50B661F771F881F991F1A9469F7609520
:100360007095809590959B01AC01BD01CF010895DA
:04037000F894FFCF2F
:00000001FF
