S013000042757A7A65725F546573742E7372656390
S11300000C942A000C9434000C9434000C943400A6
S11300100C9434000C9434000C9434000C9434008C
S11300200C9434000C9434000C9434000C9434007C
S11300300C9434000C9434000C9434000C9434006C
S11300400C9434000C9434000C9434000C9434005C
S11300500C94340011241FBECFE5D8E0DEBFCDBF21
S11300600E94D0000C94D9000C94000041E063E09D
S113007081E00E945000089540E063E081E00E9426
S1130080500008950E9436002FEF84E39CE0215035
S113009080409040E1F700C000000E943C000895B9
S11300A04130A1F5813089F028F08230C9F08330E5
S11300B011F108952BB381E090E002C0880F991FDD
S11300C06A95E2F7822B8BBB089528B381E090E018
S11300D002C0880F991F6A95E2F7822B88BB0895A6
S11300E025B381E090E002C0880F991F6A95E2F77A
S11300F0822B85BB089522B381E090E002C0880F73
S1130100991F6A95E2F7822B82BB0895411137C08B
S1130110813091F028F08230D9F0833029F10895AC
S11301202BB381E090E002C0880F991F6A95E2F733
S1130130809582238BBB089528B381E090E002C0B0
S1130140880F991F6A95E2F78095822388BB0895EA
S113015025B381E090E002C0880F991F6A95E2F709
S11301608095822385BB089522B381E090E002C08C
S1130170880F991F6A95E2F78095822382BB0895C0
S1130180813041F028F0823039F0833039F008951D
S11301906ABB089567BB089564BB089561BB089565
S11301A06FEF81E00E94C0000E943C000E94420068
S10901B0FDCFF894FFCF1F
S9030000FC
