:100000000C942A000C9409090C9432090C945B0995
:100010000C9447000C9447000C9447000C94470044
:100020000C9447000C9447000C9447000C94470034
:100030000C9447000C9447000C9447000C94470024
:100040000C947C070C9447000C9447000C944700D8
:100050000C94470011241FBECFE5D8E0DEBFCDBF12
:1000600011E0A0E6B0E0E0EAFBE102C005900D92ED
:10007000A23FB107D9F721E0A2EFB1E001C01D9284
:10008000AF3FB207E1F70E94AC040C94CE0D0C9484
:1000900000008F929F92AF92BF92CF92DF92EF9229
:1000A000FF920F931F93CF93DF93CDB7DEB7649783
:1000B0000FB6F894DEBF0FBECDBF4C01BC0180E08F
:1000C00090E00E94B30923E23BED49EF5EE30E941A
:1000D000190A0E9484096B017C01DF926F9308E783
:1000E00010E01F930F93CE0101965C019F938F93B5
:1000F0000E94E40A9F928F921F930F938E01055FD7
:100100001F4F1F930F930E94E40A0E948E068BE7F5
:1001100090E00E948106C8010E94810660E081E0B3
:100120000E94920681E890E00E9481068A2D0E943A
:1001300005069FEF24E38CE0915020408040E1F7DA
:1001400000C000000FB6F894DEBF0FBECDBF9FE128
:10015000C916D104E104F10408F46CC041E067E081
:1001600080E00E94B00741E067E080E00E94200844
:100170002FE38DE093E0215080409040E1F700C0F4
:10018000000040E067E080E00E9420082FE38DE05F
:1001900093E0215080409040E1F700C0000041E032
:1001A00067E080E00E9420082FE38DE093E021507B
:1001B00080409040E1F700C0000040E067E080E050
:1001C0000E9420082FE38DE093E021508040904072
:1001D000E1F700C0000041E067E080E00E942008F5
:1001E0002FE38DE093E0215080409040E1F700C084
:1001F000000040E067E080E00E9420082FE38DE0EF
:1002000093E0215080409040E1F700C0000041E0C1
:1002100067E080E00E9420082FE38DE093E021500A
:1002200080409040E1F700C0000040E067E080E0DF
:100230000E94200864960FB6F894DEBF0FBECDBFB3
:10024000DF91CF911F910F91FF90EF90DF90CF90B2
:10025000BF90AF909F908F9008950E94D5050E9407
:10026000FC040E94BE060E94C2040E9443076091E3
:1002700060007091610084E00E945C07089588E846
:1002800090E00E9481062FE78AE196E021508040AD
:100290009040E1F700C000000E948E0641E950E066
:1002A00061E080E00E94B30660E081E00E94920677
:1002B0008FE990E00E9481062FE78AE196E02150C5
:1002C00080409040E1F700C0000008950F931F9315
:1002D000CF93DF93082F162FC42FD0E012C0812FA9
:1002E0000E94FC06802F0E94DA0480E007C0E7EA43
:1002F000F1E63197F1F700C000008F5F8C17B8F37B
:10030000DF5FD83060F3DF91CF911F910F91089597
:100310008AEA90E00E94810642E060E081E00E946B
:10032000660108958CEB90E00E94810644E061E054
:1003300080E00E9466010895FF920F931F93CF9370
:10034000DF9300D000D0CDB7DEB710E088E798E7A4
:100350009A83898388E790E09C838B830E948E0632
:10036000111105C08DEC90E00E94810604C08EED55
:1003700090E00E94810660E081E00E949206F12CEC
:1003800017C00E940D05E1E0F0E0EC0FFD1FE00F4B
:10039000F11F80830F2D10E0E1E0F0E0EC0FFD1F76
:1003A000E00FF11F8081883761F30E940506F39406
:1003B00022E02F1578F78FE39DE023E081509040F5
:1003C0002040E1F700C000000E948E0662E670E067
:1003D000CE0101960E94CC0A892B21F40E9488014B
:1003E00010E003C00E94920111E0113009F4AECF79
:1003F0000F900F900F900F90DF91CF911F910F9161
:10040000FF90089588E702C00E940D058837E1F348
:100410000895EF92FF920F931F93CF93DF93CDB781
:10042000DEB72A970FB6F894DEBF0FBECDBF21E02E
:1004300080E890E08B87222381F04EEE50E060E070
:1004400082E00E94B3062FE38DE093E021508040CC
:100450009040E1F700C0000015C040E051E060E0CE
:1004600080E00E94B3062FEB87E299E021508040A4
:100470009040E1F700C000000E948E0681E191E00B
:100480000E94810660E081E00E949206F12CE12C3E
:100490000DC00E940202E1E0F0E0EC0FFD1FE00F52
:1004A000F11F8083F3940E940506E3940F2D10E062
:1004B000F801319781E090E08C0F9D1FE80FF91F44
:1004C00080818D3331F70E948E06E1E0F0E0EC0F81
:1004D000FD1FE00FF11F10828E2D90E0019721E0AB
:1004E000883091050CF420E008970CF4A1CFBE01F0
:1004F0006F5F7F4F82E690E00E94D50A2A960FB682
:10050000F894DEBF0FBECDBFDF91CF911F910F9149
:10051000FF90EF9008959F938F937F936F9388E759
:1005200090E09F938F935F934F930E94E40A8DB75F
:100530009EB708960FB6F8949EBF0FBE8DBF089564
:10054000CF93DF93CDB7DEB760970FB6F894DEBFD9
:100550000FBECDBF8BE191E00E9481066091F20158
:100560007091F3018091F4019091F501AE014F5F1C
:100570005F4F0E948B02AE014F5F5F4F60E081E0F2
:100580000E94B3062FE78AE196E021508040904018
:10059000E1F700C0000060960FB6F894DEBF0FBE12
:1005A000CDBFDF91CF910895CF93DF93FC0160E041
:1005B00070E002C06F5F7F4FDF01A60FB71F9C91F5
:1005C0009032C1F39D3229F46F5F7F4FCFEFDFEFA1
:1005D00009C09B3229F46F5F7F4FC1E0D0E002C0B9
:1005E000C1E0D0E020E030E013C0A901440F551F66
:1005F000220F331F220F331F220F331F420F531FAF
:10060000292F30E020533109240F351F6F5F7F4FB2
:10061000DF01A60FB71F9C9180ED890F8A3028F368
:100620002C9FB0012D9F700D3C9F700D1124072E43
:10063000000C880B990BDF91CF91089585E291E032
:100640000E9481064EE251E060E081E00E94B30624
:1006500042E061E080E00E9466010895CF938DE35F
:1006600091E00E9481064AE451E060E081E00E944E
:10067000B306C0E008C048EC50E060E070E082E003
:100680000E940C07CF5FC330B0F3CF910895CF9293
:10069000DF92EF92FF920F931F93CF93DF93CDB72B
:1006A000DEB760970FB6F894DEBF0FBECDBF1A82DB
:1006B0001982FE0133968EE0DF011D928A95E9F7DB
:1006C00087E591E00E94810643E851E060E081E027
:1006D0000E94B30667E081E00E949206F12C0F2D84
:1006E00010E00E940202E1E0F0E0EC0FFD1FE00FDD
:1006F000F11F80838D3311F00E940506F394E1E031
:10070000F0E0EC0FFD1FE00FF11F80818D3339F712
:10071000EF2DF0E03197CC24C394D12CCC0EDD1E0C
:10072000EC0DFD1D10820E948E06C6010E94D402AF
:100730000091F2011091F3012091F4013091F50143
:10074000061717072807390718F40E941E0310C060
:1007500068017901C61AD70AE80AF90AC092F201BB
:10076000D092F301E092F401F092F5010E942E0381
:100770002FE38DE093E0215080409040E1F700C0EE
:10078000000060960FB6F894DEBF0FBECDBFDF91BC
:10079000CF911F910F91FF90EF90DF90CF90089530
:1007A0008DE391E00E94810648E651E060E081E03F
:1007B0000E94B30643E062E082E00E946601089571
:1007C000FF920F931F93CF93DF93CDB7DEB72A9796
:1007D0000FB6F894DEBF0FBECDBF1A821982FE019C
:1007E000339688E0DF011D928A95E9F785E791E06D
:1007F0000E94810660E081E00E949206F12C0F2D9C
:1008000010E00E940202E1E0F0E0EC0FFD1FE00FBB
:10081000F11F80838D3311F00E940506F394E1E00F
:10082000F0E0EC0FFD1FE00FF11F80818D3339F7F1
:10083000EF2DF0E0319781E090E08C0F9D1FE80FE5
:10084000F91F10820E948E06CE0101960E94AE0A08
:10085000092E000CAA0BBB0B4091F2015091F30141
:100860006091F4017091F501840F951FA61FB71FC9
:100870008093F2019093F301A093F401B093F501FA
:100880000E94D0032A960FB6F894DEBF0FBECDBFEC
:10089000DF91CF911F910F91FF900895CF934BE877
:1008A00051E060E080E00E94B3064CE951E060E076
:1008B00081E00E94B3062FED83E994E0215080404F
:1008C0009040E1F700C000000E948E064EEA51E021
:1008D00060E080E00E94B3064EEB51E060E081E012
:1008E0000E94B3062FED83E994E0215080409040B0
:1008F000E1F700C000000E948E0681ED91E00E94A9
:1009000081060E940202C82F482F60E081E00E9409
:10091000AA062FE986E891E0215080409040E1F757
:1009200000C000000E948E06C23361F018F4C1338B
:1009300031F010C0C33349F0C43351F00BC00E94F2
:10094000E00308C00E94470305C00E94A00202C045
:100950000E940902CF9108950E942D010E943F013B
:100960000E949C010E944E04FDCF90E0FC01E459DE
:10097000FF4FDC01A159BF4F40E060818C910E9484
:1009800020080895CF93C0E011C08C2F90E0FC01A7
:10099000E459FF4FDC01A159BF4F41E060818C91C8
:1009A0000E94B0078C2F0E94B504CF5FC33068F35C
:1009B000CF910895823081F428B3E82FF0E0E45914
:1009C000FF4F81E090E0008002C0880F991F0A94D9
:1009D000E2F7822788BB08952BB3E82FF0E0E459B3
:1009E000FF4F81E090E0008002C0880F991F0A94B9
:1009F000E2F782278BBB089560E080E00E94E9085F
:100A00006FE080E00E94F9086FE081E00E94E90851
:100A10006FE081E00E94F9080895CF93DF936FE0C3
:100A200081E00E94F9086FE080E00E94F908D0E0C0
:100A30003AC040E06D2F81E00E942008C0E02BC04A
:100A40006C2F80E00E949008811124C083EC99E013
:100A50000197F1F700C000006C2F80E00E94900821
:100A6000811118C004C06C2F80E00E949008882378
:100A7000D1F341E06D2F81E00E942008EC2FF0E0DF
:100A8000EE0FFF1FEE0FFF1FEE51FE4FED0FF11D9A
:100A900080810CC0CF5FC43098F241E06D2F81E0BF
:100AA0000E942008DF5FD43020F288E7DF91CF91E9
:100AB0000895CF93C82F40E065E083E00E942008AE
:100AC00040E066E083E00E9420084C2F417060E027
:100AD00082E00E9420084C2F427050E055954795C7
:100AE00061E082E00E9420084C2F447050E0559550
:100AF00047955595479562E082E00E9420084C2F6B
:100B0000487050E0559547955595479555954795AB
:100B100063E082E00E9420084C2F407150E0559520
:100B2000479555954795559547955595479564E053
:100B300082E00E9420084C2F407250E05595479566
:100B4000559547955595479555954795559547958D
:100B500065E082E00E9420084C2F407450E0042E93
:100B6000452F000C441F550B000C441F551F66E019
:100B700082E00E9420084C2F441F4427441F67E056
:100B800082E00E94200841E067E083E00E942008A4
:100B900083EF91E00197F1F700C0000040E067E0CB
:100BA00083E00E942008CF9108956FEF82E00E94B9
:100BB000E9086FEF83E00E94E90884E68A95F1F77F
:100BC00088E30E94590589EF90E00197F1F700C092
:100BD00000008FE00E94590583EF91E00197F1F743
:100BE00000C0000081E00E94590581EE94E0019769
:100BF000F1F700C0000086E00E94590581EE94E004
:100C00000197F1F700C000000895CF93C82F41E08D
:100C100065E083E00E94200840E066E083E00E94F7
:100C200020084C2F417060E082E00E9420084C2F89
:100C3000427050E05595479561E082E00E9420089F
:100C40004C2F447050E0559547955595479562E077
:100C500082E00E9420084C2F487050E0559547953F
:100C6000559547955595479563E082E00E94200889
:100C70004C2F407150E055954795559547955595A2
:100C800047955595479564E082E00E9420084C2FD7
:100C9000407250E055954795559547955595479520
:100CA000559547955595479565E082E00E94200847
:100CB0004C2F407450E0042E452F000C441F550B60
:100CC000000C441F551F66E082E00E9420084C2F54
:100CD000441F4427441F67E082E00E94200841E04F
:100CE00067E083E00E94200883EF91E00197F1F72D
:100CF00000C0000040E067E083E00E942008CF9140
:100D00000895CF93DF93EC0103C00E94050621965E
:100D100088818111FACFDF91CF91089581E00E94FF
:100D200059050895683208F067E2823008F080E0E3
:100D3000882329F0813011F060E001C0605C862FCB
:100D400080680E94590589EF90E00197F1F700C093
:100D500000000895CF93C42F0E9492068C2F0E940A
:100D60000506CF910895CF93DF93EA010E94920682
:100D7000CE010E948106DF91CF910895EF92FF92FC
:100D80001F93CF93DF9310E015C0C12FD0E0CE01A9
:100D90008E589F4F7C01CB58DF4F41E0FC016081B2
:100DA00088810E94B00740E0F701608188810E943D
:100DB00020081F5F133048F3DF91CF911F91FF9000
:100DC000EF90089590E0FC01EE58FF4FDC01AB5826
:100DD000BF4F41E060818C910E942008089590E00F
:100DE000FC01EE58FF4FDC01AB58BF4F40E0608183
:100DF0008C910E942008089528B3E82FF0E0EE5867
:100E0000FF4F81E090E0008002C0880F991F0A9494
:100E1000E2F7822788BB0895CF92DF92EF92FF928C
:100E2000CF93C82F6A017B010E94E20680E007C0D1
:100E3000E9EFF0E03197F1F700C000008F5F482F35
:100E400050E060E070E04C155D056E057F0580F3B5
:100E50008C2F0E94EF0680E007C0E9EFF0E03197A9
:100E6000F1F700C000008F5F482F50E060E070E0B5
:100E70004C155D056E057F0580F3CF91FF90EF90D7
:100E8000DF90CF90089587B18F7787B987B180645D
:100E900087B987B18F7D87B986B18F7D86B986B1D5
:100EA000846086B986B1826086B986B18E7F86B944
:100EB00086B1806886B908958032E8F461157105BD
:100EC000D1F09091F601911116C091E09093F60146
:100ED0007093F8016093F70196B1986096B99FB747
:100EE00090689FBF97B1907E97B997B1892B87B9CA
:100EF00086B1806486B908951F920F920FB60F9243
:100F000011242F933F934F935F936F937F938F930E
:100F10009F93AF93BF93EF93FF938091F7019091CD
:100F2000F801892B61F01092F60186B1877F86B9AE
:100F300084B195B1E091F701F091F8010995FF9125
:100F4000EF91BF91AF919F918F917F916F915F9141
:100F50004F913F912F910F900FBE0F901F901895BA
:100F60004130A1F5813089F028F08230C9F083301A
:100F700011F108952AB381E090E002C0880F991F13
:100F80006A95E2F7822B8ABB089527B381E090E04F
:100F900002C0880F991F6A95E2F7822B87BB0895DC
:100FA00024B381E090E002C0880F991F6A95E2F7B0
:100FB000822B84BB089521B381E090E002C0880FAA
:100FC000991F6A95E2F7822B81BB0895411137C0C2
:100FD000813091F028F08230D9F0833029F10895E2
:100FE0002AB381E090E002C0880F991F6A95E2F76A
:100FF000809582238ABB089527B381E090E002C0E8
:10100000880F991F6A95E2F78095822387BB089520
:1010100024B381E090E002C0880F991F6A95E2F73F
:101020008095822384BB089521B381E090E002C0C3
:10103000880F991F6A95E2F78095822381BB0895F6
:101040004130A1F5813089F028F08230C9F0833039
:1010500011F108952BB381E090E002C0880F991F31
:101060006A95E2F7822B8BBB089528B381E090E06C
:1010700002C0880F991F6A95E2F7822B88BB0895FA
:1010800025B381E090E002C0880F991F6A95E2F7CE
:10109000822B85BB089522B381E090E002C0880FC7
:1010A000991F6A95E2F7822B82BB0895411137C0E0
:1010B000813091F028F08230D9F0833029F1089501
:1010C0002BB381E090E002C0880F991F6A95E2F788
:1010D000809582238BBB089528B381E090E002C005
:1010E000880F991F6A95E2F78095822388BB08953F
:1010F00025B381E090E002C0880F991F6A95E2F75E
:101100008095822385BB089522B381E090E002C0E0
:10111000880F991F6A95E2F78095822382BB089514
:101120008130D1F028F0823059F18330E9F150C09C
:1011300049B381E090E09C01062E02C0220F331FCC
:101140000A94E2F7842F90E08223932302C09595BE
:1011500087956A95E2F7089546B381E090E09C0197
:10116000062E02C0220F331F0A94E2F7842F90E06C
:101170008223932302C0959587956A95E2F7089597
:1011800043B381E090E09C01062E02C0220F331F82
:101190000A94E2F7842F90E08223932302C095956E
:1011A00087956A95E2F7089540B381E090E09C014D
:1011B000062E02C0220F331F0A94E2F7842F90E01C
:1011C0008223932302C0959587956A95E2F7089547
:1011D0000895813041F028F0823039F0833039F0C1
:1011E00008956ABB089567BB089564BB089561BB09
:1011F0000895813041F028F0823039F0833039F0A1
:1012000008956BBB089568BB089565BB089562BBE4
:1012100008951F920F920FB60F9211242F933F93B0
:101220004F935F936F937F938F939F93AF93BF93EE
:10123000EF93FF93E091F901F091FA01309709F0F3
:101240000995FF91EF91BF91AF919F918F917F9100
:101250006F915F914F913F912F910F900FBE0F9023
:101260001F9018951F920F920FB60F9211242F9373
:101270003F934F935F936F937F938F939F93AF931E
:10128000BF93EF93FF93E091FB01F091FC01309746
:1012900009F00995FF91EF91BF91AF919F918F91C7
:1012A0007F916F915F914F913F912F910F900FBE62
:1012B0000F901F9018951F920F920FB60F92112446
:1012C0002F933F934F935F936F937F938F939F934E
:1012D000AF93BF93EF93FF93E091FD01F091FE0177
:1012E000309709F00995FF91EF91BF91AF919F91D0
:1012F0008F917F916F915F914F913F912F910F90BF
:101300000FBE0F901F9018950E94F80988F09F5704
:1013100098F0B92F9927B751B0F0E1F0660F771F19
:10132000881F991F1AF0BA95C9F714C0B13091F00F
:101330000E94120AB1E008950C94120A672F782FC8
:101340008827B85F39F0B93FCCF3869577956795D4
:10135000B395D9F73EF490958095709561957F4F40
:101360008F4F9F4F0895E89409C097FB3EF49095E6
:101370008095709561957F4F8F4F9F4F9923A9F06E
:10138000F92F96E9BB279395F695879577956795FD
:10139000B795F111F8CFFAF4BB0F11F460FF1BC041
:1013A0006F5F7F4F8F4F9F4F16C0882311F096E9D4
:1013B00011C0772321F09EE8872F762F05C0662382
:1013C00071F096E8862F70E060E02AF09A95660F3B
:1013D000771F881FDAF7880F9695879597F90895F4
:1013E00057FD9058440F551F59F05F3F71F04795D6
:1013F000880F97FB991F61F09F3F79F087950895BB
:10140000121613061406551FF2CF4695F1DF08C0D9
:10141000161617061806991FF1CF869571056105F6
:1014200008940895E894BB2766277727CB0197F99E
:1014300008950E942C0A0C949D0A0E948F0A38F08D
:101440000E94960A20F0952311F00C94860A0C94C1
:101450008C0A11240C94130A0E94F00970F3959FD2
:10146000C1F3950F50E0551F629FF001729FBB279B
:10147000F00DB11D639FAA27F00DB11DAA1F649F37
:101480006627B00DA11D661F829F2227B00DA11DEA
:10149000621F739FB00DA11D621F839FA00D611D70
:1014A000221F749F3327A00D611D231F849F600D91
:1014B000211D822F762F6A2F11249F5750409AF0BA
:1014C000F1F088234AF0EE0FFF1FBB1F661F771F46
:1014D000881F91505040A9F79E3F510580F00C9411
:1014E000860A0C94130A5F3FE4F3983ED4F3869582
:1014F00077956795B795F795E7959F5FC1F7FE2BB1
:10150000880F911D9695879597F9089597F99F678C
:1015100080E870E060E008959FEF80EC089500247B
:101520000A941616170618060906089500240A9448
:1015300012161306140605060895092E0394000CCE
:1015400011F4882352F0BB0F40F4BF2B11F460FF5D
:1015500004C06F5F7F4F8F4F9F4F0895FC01882716
:101560009927E89421912032E9F3293010F02E30A8
:10157000C8F32B3241F02D3239F4689404C00E9434
:10158000DC0A820F911D219120532A30C0F31EF4F2
:10159000909581959F4F0895FB01DC018D910190FD
:1015A00080190110D9F3990B0895FB01DC0101901A
:1015B0000D920020E1F708957AE0979F902D879F84
:1015C000802D910D11240895AEE0B0E0EAEEFAE02E
:1015D0000C94A50D0D891E8986E08C831A830983DE
:1015E0008FEF9FE79E838D83AE01475E5F4F6F89CC
:1015F000788DCE0101960E94060BEF81F885E00FF1
:10160000F11F10822E96E4E00C94C10DABE0B0E027
:10161000ECE0FBE00C94970D6C017B018A01FC016E
:1016200017821682838181FFCCC1CE0101963C01D5
:10163000F6019381F70193FD859193FF81917F01DD
:10164000882309F4BAC1853239F493FD859193FF5B
:1016500081917F01853229F4B60190E00E94FD0C52
:10166000E7CF912C212C312CFFE1F315D8F08B32F0
:1016700079F038F4803279F08332A1F4232D20619F
:101680001DC08D3261F0803369F4232D216016C0B6
:10169000832D8260382EE32DE4603E2E2AC0F32D88
:1016A000F8601DC037FC2DC020ED280F2A3040F017
:1016B0008E32B9F436FC81C1232D2064322E19C03C
:1016C00036FE06C08AE0989E200D1124922E11C08D
:1016D000EAE02E9E200D1124222EF32DF0623F2EE3
:1016E00008C08C3621F4832D8068382E02C08836DD
:1016F00041F4F70193FD859193FF81917F01811161
:10170000B3CF982F9F7D9554933028F40C5F1F4FD3
:101710009FE399830DC0833631F0833771F08335B1
:1017200009F059C021C0F801808189830E5F1F4FE5
:1017300088248394912C530113C02801F2E04F0EAA
:10174000511CF801A080B18036FE03C0692D70E005
:1017500002C06FEF7FEFC5010E94F20C4C018201C5
:10176000F32DFF773F2E16C0280122E0420E511CB8
:10177000F801A080B18036FE03C0692D70E002C080
:101780006FEF7FEFC5010E94E70C4C01F32DF0686D
:101790003F2E820133FC1BC0822D90E088169906F3
:1017A000B0F4B60180E290E00E94FD0C2A94F4CFE0
:1017B000F50137FC859137FE81915F01B60190E01C
:1017C0000E94FD0C21102A9421E0821A91088114B4
:1017D000910471F7E8C0843611F0893641F5F801BB
:1017E00037FE07C060817181828193810C5F1F4F3A
:1017F00008C060817181072E000C880B990B0E5F69
:101800001F4FF32DFF763F2E97FF09C090958095CF
:10181000709561957F4F8F4F9F4FF0683F2E2AE064
:1018200030E0A3010E94390D882E861845C0853707
:1018300031F4232D2F7EB22E2AE030E025C0932DE7
:10184000997FB92E8F36C1F018F4883579F0B5C07C
:10185000803719F0883721F0B0C0E92FE061BE2E43
:10186000B4FE0DC0FB2DF460BF2E09C034FE0AC0CB
:10187000292F2660B22E06C028E030E005C020E106
:1018800030E002C020E132E0F801B7FE07C060811D
:101890007181828193810C5F1F4F06C060817181CD
:1018A00080E090E00E5F1F4FA3010E94390D882E4B
:1018B0008618FB2DFF773F2E36FE0DC0232D2E7F81
:1018C000A22E891458F434FE0BC032FC09C0832DBB
:1018D0008E7EA82E05C0B82CA32C03C0B82C01C046
:1018E000B92CA4FE0FC0FE01E80DF11D80818033EC
:1018F00021F49A2D997EA92E09C0A2FE06C0B394A8
:10190000B39404C08A2D867809F0B394A3FC11C067
:10191000A0FE06C0B21488F4280C922C9B180EC0AE
:10192000B21460F4B60180E290E00E94FD0CB39422
:10193000F7CFB21418F42B1802C0982C212CA4FE57
:1019400010C0B60180E390E00E94FD0CA2FE17C01B
:10195000A1FC03C088E790E002C088E590E0B601F2
:101960000CC08A2D867859F0A1FE02C08BE201C01E
:1019700080E2A7FC8DE2B60190E00E94FD0C891484
:1019800038F4B60180E390E00E94FD0C9A94F7CF02
:101990008A94F301E80DF11D8081B60190E00E9468
:1019A000FD0C8110F5CF222009F442CEB60180E271
:1019B00090E00E94FD0C2A94F6CFF6018681978173
:1019C00002C08FEF9FEF2B96E2E10C94B30DFC0168
:1019D0000590615070400110D8F7809590958E0F5A
:1019E0009F1F0895FC016150704001900110D8F7CD
:1019F000809590958E0F9F1F08950F931F93CF93FF
:101A0000DF93FB01238121FD03C08FEF9FEF2CC0EB
:101A100022FF16C046815781248135814217530722
:101A200044F4A081B1819D012F5F3F4F318320831A
:101A30008C93268137812F5F3F4F3783268314C0D5
:101A40008B01EC01FB010084F185E02D0995892BC8
:101A5000E1F6D80116968D919C91179701961796ED
:101A60009C938E931697CE01DF91CF911F910F918A
:101A70000895FA01AA27283051F1203181F1E89424
:101A80006F936E7F6E5F7F4F8F4F9F4FAF4FB1E071
:101A90003ED0B4E03CD0670F781F891F9A1FA11D6C
:101AA000680F791F8A1F911DA11D6A0F711D811D6D
:101AB000911DA11D20D009F468943F912AE0269F32
:101AC00011243019305D3193DEF6CF010895462F91
:101AD0004770405D4193B3E00FD0C9F7F6CF462F72
:101AE0004F70405D4A3318F0495D31FD40524193DB
:101AF00002D0A9F7EACFB4E0A69597958795779598
:101B00006795BA95C9F700976105710508959B011E
:101B1000AC010A2E06945795479537952795BA95A7
:101B2000C9F7620F731F841F951FA01D08952F9280
:101B30003F924F925F926F927F928F929F92AF925D
:101B4000BF92CF92DF92EF92FF920F931F93CF93AA
:101B5000DF93CDB7DEB7CA1BDB0B0FB6F894DEBF41
:101B60000FBECDBF09942A88398848885F846E8467
:101B70007D848C849B84AA84B984C884DF80EE80B1
:101B8000FD800C811B81AA81B981CE0FD11D0FB6BA
:101B9000F894DEBF0FBECDBFED010895F894FFCFDE
:101BA0004900313233000000000000000506040047
:101BB00000010506070101012564004144433A2064
:101BC0000054656D703A200048656C6C6F203A29AE
:101BD0000057656C636F6D6520746F20565300204D
:101BE00020202053797374656D00436F72726563B2
:101BF000742050617373776F72642100496E636F54
:101C000072726563742050617373212100456E7494
:101C100065722070617373776F7264203A00526549
:101C2000656E74657220757220706173730043680D
:101C3000616E67652050617373776F7264203A003C
:101C400050617373776F7264206C656E203C20382E
:101C50000054727920616761696E0042616C616E47
:101C60006365203A005741524E494E472100434197
:101C70004E275420574954484452415700537563E6
:101C80006365737366756C6C790057697468647208
:101C900061776E203A2900456E7465722077697409
:101CA0006864726177616C004465706F7369746514
:101CB00064203A2900456E746572206465706F7304
:101CC000697420616D6F756E743A00312D20446522
:101CD000706F736974204D6F6E657900322D2057D7
:101CE00069746864726177204D6F6E657900332D79
:101CF00020566965772042616C616E636500342D02
:101D0000204368616E67652050617373776F7264FA
:101D100000456E7465722075722063686F69636533
:101D20003A00373839F73435362A3132332D6330BB
:021D30003D2B49
:00000001FF
