S012000041544D5F53595354454D2E73726563EC
S11300000C942A000C9431090C945A090C94830919
S11300100C9447000C9447000C9447000C94470040
S11300200C9447000C9447000C9447000C94470030
S11300300C9447000C9447000C9447000C94470020
S11300400C9447000C9447000C9447000C94470010
S11300500C94470011241FBECFE5D8E0DEBFCDBF0E
S113006012E0A0E6B0E0EEE8FCE102C005900D92DB
S1130070AE35B107D9F722E0AEE5B2E001C01D927A
S1130080AC36B207E1F70E94F3040C94450E0C94CD
S113009000000E9424060E944B050E940D070E9446
S11300A01105089560E875E280E090E00E94AC09D3
S11300B00E94920708958BE890E00E94D0062FE7F3
S11300C08AE196E0215080409040E1F700C00000B2
S11300D00E94DD0644E950E061E080E00E940207EE
S11300E060E081E00E94E10682EA90E00E94D0068E
S11300F02FE78AE196E0215080409040E1F700C06C
S113010000000895FF920F931F93CF93DF93F82E6F
S1130110062FC42F613011F418E001C014E0D0E0C0
S113012012C0802F0E944B078F2D0E94290580E06A
S113013007C0E7EAF1E63197F1F700C000008F5FEE
S11301408C17B8F3DF5FD11760F3DF91CF911F9164
S11301500F91FF9008958DEA90E00E94D00642E04E
S113016060E081E00E94820008958FEB90E00E949D
S1130170D00644E061E080E00E9482000895EF929E
S1130180FF920F931F93CF93DF9300D01F92CDB7AD
S1130190DEB70E94DD0680ED90E00E94D00641EEBD
S11301A050E060E081E00E9402072FEB87E299E0D3
S11301B0215080409040E1F700C000000E94DD061D
S11301C083EF90E00E94D00644E051E060E081E0DB
S11301D00E9402070EE110E026C01F930F9381E1F5
S11301E091E09F938F93CE0101967C019F938F930F
S11301F00E945B0B9FE32DE083E091502040804000
S1130200E1F700C00000A7016DE081E00E94020751
S113021083E70E945406015011090F900F900F902C
S11302200F900F900F901123C4F60F900F900F9022
S1130230DF91CF911F910F91FF90EF90089588E780
S113024002C00E945C058837E1F30895EF92FF92A3
S11302500F931F93CF93DF93CDB7DEB760970FB69D
S1130260F894DEBF0FBECDBFE12C10E01A821982D4
S1130270FE0133968EE0DF011D928A95E9F70E9414
S1130280DD06111105C084E191E00E94D00604C08E
S113029085E291E00E94D00660E081E00E94E106E0
S11302A0F12C0F2D10E00E941F01E1E0F0E0EC0FB3
S11302B0FD1F0E0F1F1FD8018C930E945406F39448
S11302C0F80180818D3369F70E94DD06EF2DF0E09F
S11302D0319721E030E02C0F3D1FE20FF31F108215
S11302E060E670E0C9010E944B0B892B21F40E9447
S11302F0AB0010E004C00E94B500E39411E011309B
S113030021F432E03E1508F0B1CF82E08E1510F4EE
S11303100E94BF0060960FB6F894DEBF0FBECDBF3B
S1130320DF91CF911F910F91FF90EF900895EF927D
S1130330FF920F931F93CF93DF93CDB7DEB72A9726
S11303400FB6F894DEBF0FBECDBF21E08FEC90E076
S11303508B87222381F045E351E060E082E00E9434
S113036002072FE38DE093E0215080409040E1F7B5
S113037000C0000015C047E451E060E080E00E9446
S113038002072FEB87E299E0215080409040E1F78B
S113039000C000000E94DD0688E591E00E94D006BE
S11303A060E081E00E94E106F12CE12C0DC00E9486
S11303B01F01E1E0F0E0EC0FFD1FE00FF11F80836F
S11303C0F3940E945406E3940F2D10E0F801319742
S11303D081E090E08C0F9D1FE80FF91F80818D3321
S11303E031F70E94DD06E1E0F0E0EC0FFD1FE00FC5
S11303F0F11F10828E2D90E0019721E08830910545
S11304000CF420E008970CF4A1CFBE016F5F7F4F7E
S113041080E690E00E94540B2A960FB6F894DEBF53
S11304200FBECDBFDF91CF911F910F91FF90EF9041
S113043008959F938F937F936F9381E191E09F93AE
S11304408F935F934F930E945B0B8DB79EB7089673
S11304500FB6F8949EBF0FBE8DBF0895CF93DF9360
S1130460CDB7DEB760970FB6F894DEBF0FBECDBF31
S113047082E691E00E94D00660915E0270915F0274
S11304808091600290916102AE014F5F5F4F0E94C4
S11304901902AE014F5F5F4F60E081E00E940207E6
S11304A02FE78AE196E0215080409040E1F700C0B8
S11304B0000060960FB6F894DEBF0FBECDBFDF918B
S11304C0CF910895CF93DF93FC0160E070E002C008
S11304D06F5F7F4FDF01A60FB71F9C919032C1F36E
S11304E09D3229F46F5F7F4FCFEFDFEF09C09B325E
S11304F029F46F5F7F4FC1E0D0E002C0C1E0D0E0DB
S113050020E030E013C0A901440F551F220F331F10
S1130510220F331F220F331F420F531F292F30E0A6
S113052020533109240F351F6F5F7F4FDF01A60F62
S1130530B71F9C9180ED890F8A3028F32C9FB0015E
S11305402D9F700D3C9F700D1124072E000C880BFD
S1130550990BDF91CF9108958CE691E00E94D0062B
S113056045E751E060E081E00E94020742E061E07B
S113057080E00E9482000895CF9384E891E00E9475
S1130580D00641E951E060E081E00E940207C0E04A
S113059008C048EC50E060E070E082E00E945B0735
S11305A0CF5FC330B0F3CF9108954F925F926F92B3
S11305B07F92AF92BF92CF92DF92EF92FF920F930E
S11305C01F93CF93DF93CDB7DEB764970FB6F8943C
S11305D0DEBF0FBECDBF1A821982FE0133968EE0B4
S11305E0DF011D928A95E9F78EE991E00E94D00619
S11305F04AEC51E060E081E00E94020767E081E09C
S11306000E94E106F12C0F2D10E00E941F01E1E091
S1130610F0E0EC0FFD1FE00FF11F80838D3311F02C
S11306200E945406F394E1E0F0E0EC0FFD1FE00FAC
S1130630F11F80818D3339F7EF2DF0E0319781E0A0
S113064090E08C0F9D1FE80FF91F10820E94DD06B9
S1130650CE0101960E9462022B013C01DC01CB0118
S1130660BB0F880B982FDC01898B9A8BAB8BBC8BCF
S1130670A0905E02B0905F02C0906002D0906102D0
S1130680E0906202F09063020091640210916502AE
S1130690242D352D462D572D6989762F862F962F9B
S11306A00E94360B09F010F477201CF40E94AC026F
S11306B02FC087E70E94CD0920915E0230915F022E
S11306C040916002509161026091620270916302F4
S11306D08091640290916502A42CB52CC62CD72C71
S11306E0E988FE2C0E2D1E2D0E942D0B20935E02F8
S11306F030935F0240936002509361026093620200
S11307007093630280936402909365020E94BC021A
S11307109FE3ADE0B3E09150A040B040E1F700C0EA
S1130720000064960FB6F894DEBF0FBECDBFDF9114
S1130730CF911F910F91FF90EF90DF90CF90BF90DA
S1130740AF907F906F905F904F90089584E891E010
S11307500E94D0064FEA51E060E081E00E94020767
S113076043E062E082E00E94820008954F925F922B
S11307706F927F929F92AF92BF92CF92DF92EF924D
S1130780FF920F931F93CF93DF93CDB7DEB72A97D2
S11307900FB6F894DEBF0FBECDBF1A821982FE01D8
S11307A0339688E0DF011D928A95E9F7912C0E9427
S11307B0DD068CEB91E00E94D00660E081E00E94AF
S11307C0E106092D10E00E941F01E1E0F0E0EC0FCA
S11307D0FD1FE00FF11F80838D3311F00E9454063A
S11307E09394E1E0F0E0EC0FFD1FE00FF11F808136
S11307F08D3339F7E92DF0E0319781E090E08C0FEB
S11308009D1FE80FF91F10820E94DD06CE0101969C
S11308100E9462022B013C015B016C01242D3B2DE3
S11308204C2D5D2D60E070E080E090E0A0E00E943F
S11308303F0B81F17CF163015201242D3B2D4C2DA2
S11308405D2DA0905E02B0905F02C0906002D090D7
S11308506102E0906202F0906302009164021091E0
S113086065020E94240B20935E0230935F02409342
S113087060025093610260936202709363028093FA
S113088064029093650284E60E94CD090E94A60347
S113089080E016C00E94DD0682ED91E00E94D00641
S11308A040EE51E060E081E00E9402079FE7AAE188
S11308B0B6E09150A040B040E1F700C0000081E0F4
S11308C0813009F474CF2A960FB6F894DEBF0FBEB8
S11308D0CDBFDF91CF911F910F91FF90EF90DF90EB
S11308E0CF90BF90AF909F907F906F905F904F900C
S11308F008950E94BA07BC0180E090E00E94070AB4
S113090023E23BED49EF5EE30E946D0A0E94D109A8
S11309106F31710524F089E70E94CD0908958EE6B0
S11309200E94CD090895CF9341EF51E060E080E04B
S11309300E94020742E052E060E081E00E94020768
S11309402FED83E994E0215080409040E1F700C00E
S113095000000E94DD0644E152E060E080E00E9475
S1130960020744E252E060E081E00E9402072FEDBA
S113097083E994E0215080409040E1F700C00000FA
S11309800E94DD0687E392E00E94D0060E941F01C8
S1130990C82F482F60E081E00E94F9062FE986E81D
S11309A091E0215080409040E1F700C000000E9497
S11309B0DD06C23361F018F4C13331F010C0C33323
S11309C049F0C43351F00BC00E94B60308C00E9422
S11309D0D50205C00E942E0202C00E9497010E9407
S11309E07904CF9108950E9452000E9449000E9408
S11309F05B000E9426010E941F090E9493040E942A
S1130A001B090E947904F9CF90E0FC01E659FF4FDD
S1130A10DC01A359BF4F40E060818C910E943208F1
S1130A200895CF93C0E011C08C2F90E0FC01E659EB
S1130A30FF4FDC01A359BF4F41E060818C910E94BC
S1130A40C2078C2F0E940405CF5FC33068F3CF9197
S1130A500895823081F428B3E82FF0E0E659FF4F7F
S1130A6081E090E0008002C0880F991F0A94E2F7A9
S1130A70822788BB08952BB3E82FF0E0E659FF4F97
S1130A8081E090E0008002C0880F991F0A94E2F789
S1130A9082278BBB089560E080E00E94FB086FE032
S1130AA080E00E940B096FE081E00E94FB086FE088
S1130AB081E00E940B090895CF93DF936FE081E0FA
S1130AC00E940B096FE080E00E940B09D0E03AC05D
S1130AD040E06D2F81E00E943208C0E02BC06C2FF3
S1130AE080E00E94A208811124C083EC99E0019760
S1130AF0F1F700C000006C2F80E00E94A208811171
S1130B0018C004C06C2F80E00E94A2088823D1F38F
S1130B1041E06D2F81E00E943208EC2FF0E0EE0FEF
S1130B20FF1FEE0FFF1FE25BFD4FED0FF11D8081F4
S1130B300CC0CF5FC43098F241E06D2F81E00E9479
S1130B403208DF5FD43020F288E7DF91CF91089537
S1130B50CF93C82F40E065E083E00E94320840E074
S1130B6066E083E00E9432084C2F417060E082E02E
S1130B700E9432084C2F427050E05595479561E031
S1130B8082E00E9432084C2F447050E055954795FE
S1130B905595479562E082E00E9432084C2F4870D8
S1130BA050E055954795559547955595479563E07C
S1130BB082E00E9432084C2F407150E055954795D1
S1130BC055954795559547955595479564E082E029
S1130BD00E9432084C2F407250E055954795559528
S1130BE0479555954795559547955595479565E08E
S1130BF082E00E9432084C2F407450E0042E452FAE
S1130C00000C441F550B000C441F551F66E082E086
S1130C100E9432084C2F441F4427441F67E082E09F
S1130C200E94320841E067E083E00E94320883EFCB
S1130C3091E00197F1F700C0000040E067E083E035
S1130C400E943208CF9108956FEF82E00E94FB0862
S1130C506FEF83E00E94FB0884E68A95F1F788E34E
S1130C600E94A80589EF90E00197F1F700C0000009
S1130C708FE00E94A80583EF91E00197F1F700C08F
S1130C80000081E00E94A80581EE94E00197F1F74D
S1130C9000C0000086E00E94A80581EE94E0019760
S1130CA0F1F700C000000895CF93C82F41E065E03C
S1130CB083E00E94320840E066E083E00E9432084C
S1130CC04C2F417060E082E00E9432084C2F427049
S1130CD050E05595479561E082E00E9432084C2F20
S1130CE0447050E0559547955595479562E082E0EC
S1130CF00E9432084C2F487050E055954795559501
S1130D0047955595479563E082E00E9432084C2F41
S1130D10407150E05595479555954795559547959C
S1130D205595479564E082E00E9432084C2F40724A
S1130D3050E0559547955595479555954795559543
S1130D4047955595479565E082E00E9432084C2FFF
S1130D50407450E0042E452F000C441F550B000C2A
S1130D60441F551F66E082E00E9432084C2F441F46
S1130D704427441F67E082E00E94320841E067E0B4
S1130D8083E00E94320883EF91E00197F1F700C0FD
S1130D90000040E067E083E00E943208CF910895AC
S1130DA0CF93DF93EC0103C00E94540621968881FF
S1130DB08111FACFDF91CF91089581E00E94A805B7
S1130DC00895683208F067E2823008F080E08823F2
S1130DD029F0813011F060E001C0605C862F8068EA
S1130DE00E94A80589EF90E00197F1F700C0000088
S1130DF00895CF93C42F0E94E1068C2F0E945406BD
S1130E00CF910895CF93DF93EA010E94E106CE01CA
S1130E100E94D006DF91CF910895EF92FF921F9325
S1130E20CF93DF9310E015C0C12FD0E0CE018059DD
S1130E309F4F7C01CD58DF4F41E0FC0160818881E8
S1130E400E94C20740E0F701608188810E94320855
S1130E501F5F133048F3DF91CF911F91FF90EF9004
S1130E60089590E0FC01E059FF4FDC01AD58BF4FFD
S1130E7041E060818C910E943208089590E0FC0169
S1130E80E059FF4FDC01AD58BF4F40E060818C91C9
S1130E900E943208089528B3E82FF0E0E059FF4F8C
S1130EA081E090E0008002C0880F991F0A94E2F765
S1130EB0822788BB0895CF92DF92EF92FF92CF935F
S1130EC0C82F6A017B010E94310780E007C0E9EF67
S1130ED0F0E03197F1F700C000008F5F482F50E039
S1130EE060E070E04C155D056E057F0580F38C2F86
S1130EF00E943E0780E007C0E9EFF0E03197F1F788
S1130F0000C000008F5F482F50E060E070E04C1597
S1130F105D056E057F0580F3CF91FF90EF90DF9024
S1130F20CF90089587B1806487B987B18F7787B9E7
S1130F3087B18F7D87B987B18E7F87B987B18D7F60
S1130F4087B987B1846087B987B1877F87B987B14B
S1130F508F7E87B986B1806286B986B1816086B991
S1130F6086B1826086B986B1846086B986B18068AC
S1130F7086B9089586B1806486B9349BFECF84B166
S1130F8095B108954130A1F5813089F028F082307F
S1130F90C9F0833011F108952AB381E090E002C0D2
S1130FA0880F991F6A95E2F7822B8ABB089527B3AD
S1130FB081E090E002C0880F991F6A95E2F7822BC6
S1130FC087BB089524B381E090E002C0880F991F85
S1130FD06A95E2F7822B84BB089521B381E090E007
S1130FE002C0880F991F6A95E2F7822B81BB08958E
S1130FF0411137C0813091F028F08230D9F083302C
S113100029F108952AB381E090E002C0880F991F66
S11310106A95E2F7809582238ABB089527B381E01D
S113102090E002C0880F991F6A95E2F780958223A9
S113103087BB089524B381E090E002C0880F991F14
S11310406A95E2F78095822384BB089521B381E0F9
S113105090E002C0880F991F6A95E2F78095822379
S113106081BB08954130A1F5813089F028F08230A8
S1131070C9F0833011F108952BB381E090E002C0F0
S1131080880F991F6A95E2F7822B8BBB089528B3CA
S113109081E090E002C0880F991F6A95E2F7822BE5
S11310A088BB089525B381E090E002C0880F991FA2
S11310B06A95E2F7822B85BB089522B381E090E024
S11310C002C0880F991F6A95E2F7822B82BB0895AC
S11310D0411137C0813091F028F08230D9F083304B
S11310E029F108952BB381E090E002C0880F991F85
S11310F06A95E2F7809582238BBB089528B381E03B
S113110090E002C0880F991F6A95E2F780958223C8
S113111088BB089525B381E090E002C0880F991F31
S11311206A95E2F78095822385BB089522B381E016
S113113090E002C0880F991F6A95E2F78095822398
S113114082BB08958130D1F028F0823059F1833088
S1131150E9F150C049B381E090E09C01062E02C041
S1131160220F331F0A94E2F7842F90E08223932303
S113117002C0959587956A95E2F7089546B381E094
S113118090E09C01062E02C0220F331F0A94E2F75E
S1131190842F90E08223932302C0959587956A95C6
S11311A0E2F7089543B381E090E09C01062E02C06B
S11311B0220F331F0A94E2F7842F90E082239323B3
S11311C002C0959587956A95E2F7089540B381E04A
S11311D090E09C01062E02C0220F331F0A94E2F70E
S11311E0842F90E08223932302C0959587956A9576
S11311F0E2F708950895813041F028F0823039F003
S1131200833039F008956ABB089567BB089564BBC1
S1131210089561BB0895813041F028F0823039F09F
S1131220833039F008956BBB089568BB089565BB9E
S1131230089562BB08958FB780688FBF08959BEFB0
S1131240980F933068F44BB721E030E0B90102C045
S1131250660F771F8A95E2F7CB01809584238BBFB5
S113126008951F920F920FB60F9211242F933F935C
S11312704F935F936F937F938F939F93AF93BF939A
S1131280EF93FF93E0916602F0916702309709F0C3
S11312900995FF91EF91BF91AF919F918F917F91AC
S11312A06F915F914F913F912F910F900FBE0F90CF
S11312B01F9018951F920F920FB60F9211242F931F
S11312C03F934F935F936F937F938F939F93AF93CA
S11312D0BF93EF93FF93E0916802F0916902309716
S11312E009F00995FF91EF91BF91AF919F918F9173
S11312F07F916F915F914F913F912F910F900FBE0E
S11313000F901F9018951F920F920FB60F921124F1
S11313102F933F934F935F936F937F938F939F93F9
S1131320AF93BF93EF93FF93E0916A02F0916B0246
S1131330309709F00995FF91EF91BF91AF919F917B
S11313408F917F916F915F914F913F912F910F906A
S11313500FBE0F901F90189522E02BB928E12AB9EF
S113136026E820BDDC01CB01880F991FAA1FBB1FF3
S1131370880F991FAA1FBB1F9C01AD01220F331FA9
S1131380441F551F60E074E284EF90E00E94020B5A
S11313902150310930BD29B908955D9BFECF8CB928
S11313A008950E94D8096894B1110C94670A0895AD
S11313B00E944C0A88F09F5798F0B92F9927B7518B
S11313C0B0F0E1F0660F771F881F991F1AF0BA95E5
S11313D0C9F714C0B13091F00E94660AB1E00895D3
S11313E00C94660A672F782F8827B85F39F0B93FC5
S11313F0CCF3869577956795B395D9F73EF4909598
S11314008095709561957F4F8F4F9F4F0895E89415
S113141009C097FB3EF490958095709561957F4F38
S11314208F4F9F4F9923A9F0F92F96E9BB279395E6
S1131430F695879577956795B795F111F8CFFAF4F6
S1131440BB0F11F460FF1BC06F5F7F4F8F4F9F4F27
S113145016C0882311F096E911C0772321F09EE885
S1131460872F762F05C0662371F096E8862F70E0EB
S113147060E02AF09A95660F771F881FDAF7880FC5
S11314809695879597F9089557FD9058440F551FE1
S113149059F05F3F71F04795880F97FB991F61F0F2
S11314A09F3F79F087950895121613061406551F69
S11314B0F2CF4695F1DF08C0161617061806991FD5
S11314C0F1CF86957105610508940895E894BB27CA
S11314D066277727CB0197F908950E94800A0C9418
S11314E0F10A0E94E30A38F00E94EA0A20F09523E8
S11314F011F00C94DA0A0C94E00A11240C94670A93
S11315000E94440A70F3959FC1F3950F50E0551F54
S1131510629FF001729FBB27F00DB11D639FAA2744
S1131520F00DB11DAA1F649F6627B00DA11D661F93
S1131530829F2227B00DA11D621F739FB00DA11DB4
S1131540621F839FA00D611D221F749F3327A00D6E
S1131550611D231F849F600D211D822F762F6A2F0A
S113156011249F5750409AF0F1F088234AF0EE0F6F
S1131570FF1FBB1F661F771F881F91505040A9F79C
S11315809E3F510580F00C94DA0A0C94670A5F3F81
S1131590E4F3983ED4F3869577956795B795F795D8
S11315A0E7959F5FC1F7FE2B880F911D9695879550
S11315B097F9089597F99F6780E870E060E00895CF
S11315C09FEF80EC089500240A9416161706180657
S11315D00906089500240A94121613061406050633
S11315E00895092E0394000C11F4882352F0BB0FC4
S11315F040F4BF2B11F460FF04C06F5F7F4F8F4F27
S11316009F4F0895A1E21A2EAA1BBB1BFD010DC01A
S1131610AA1FBB1FEE1FFF1FA217B307E407F5079E
S113162020F0A21BB30BE40BF50B661F771F881F7A
S1131630991F1A9469F760957095809590959B0110
S1131640AC01BD01CF0108952A0D3B1D4C1D5D1D4C
S11316506E1D7F1D801F911F08952A193B094C0997
S11316605D096E097F09800B910B08952A153B05CE
S11316704C055D056E057F058007910708950024DC
S1131680A7FD00942A173005400550056005700534
S1131690800590050895FB01DC018D91019080196E
S11316A00110D9F3990B0895FB01DC0101900D920F
S11316B00020E1F70895AEE0B0E0E1E6FBE00C9431
S11316C01C0E0D891E8986E08C831A8309838FEF93
S11316D09FE79E838D83AE01475E5F4F6F89788D50
S11316E0CE0101960E947D0BEF81F885E00FF11F7A
S11316F010822E96E4E00C94380EABE0B0E0E3E800
S1131700FBE00C940E0E6C017B018A01FC01178234
S11317101682838181FFCCC1CE0101963C01F60182
S11317209381F70193FD859193FF81917F01882334
S113173009F4BAC1853239F493FD859193FF8191FF
S11317407F01853229F4B60190E00E94740DE7CF41
S1131750912C212C312CFFE1F315D8F08B3279F048
S113176038F4803279F08332A1F4232D20611DC036
S11317708D3261F0803369F4232D216016C0832DEE
S11317808260382EE32DE4603E2E2AC0F32DF860EB
S11317901DC037FC2DC020ED280F2A3040F08E32BA
S11317A0B9F436FC81C1232D2064322E19C036FED3
S11317B006C08AE0989E200D1124922E11C0EAE002
S11317C02E9E200D1124222EF32DF0623F2E08C0F0
S11317D08C3621F4832D8068382E02C0883641F47B
S11317E0F70193FD859193FF81917F018111B3CF1F
S11317F0982F9F7D9554933028F40C5F1F4F9FE3DF
S113180099830DC0833631F0833771F0833509F045
S113181059C021C0F801808189830E5F1F4F88243D
S11318208394912C530113C02801F2E04F0E511CF4
S1131830F801A080B18036FE03C0692D70E002C0BB
S11318406FEF7FEFC5010E94690D4C018201F32DFA
S1131850FF773F2E16C0280122E0420E511CF801EA
S1131860A080B18036FE03C0692D70E002C06FEF26
S11318707FEFC5010E945E0D4C01F32DF0683F2EF1
S1131880820133FC1BC0822D90E088169906B0F4C7
S1131890B60180E290E00E94740D2A94F4CFF50121
S11318A037FC859137FE81915F01B60190E00E947B
S11318B0740D21102A9421E0821A91088114910454
S11318C071F7E8C0843611F0893641F5F80137FE26
S11318D007C060817181828193810C5F1F4F08C0B2
S11318E060817181072E000C880B990B0E5F1F4FCE
S11318F0F32DFF763F2E97FF09C090958095709544
S113190061957F4F8F4F9F4FF0683F2E2AE030E064
S1131910A3010E94B00D882E861845C0853731F486
S1131920232D2F7EB22E2AE030E025C0932D997FFF
S1131930B92E8F36C1F018F4883579F0B5C08037E8
S113194019F0883721F0B0C0E92FE061BE2EB4FE53
S11319500DC0FB2DF460BF2E09C034FE0AC0292F30
S11319602660B22E06C028E030E005C020E130E059
S113197002C020E132E0F801B7FE07C06081718146
S1131980828193810C5F1F4F06C06081718180E06A
S113199090E00E5F1F4FA3010E94B00D882E8618A1
S11319A0FB2DFF773F2E36FE0DC0232D2E7FA22E5A
S11319B0891458F434FE0BC032FC09C0832D8E7E8A
S11319C0A82E05C0B82CA32C03C0B82C01C0B92C78
S11319D0A4FE0FC0FE01E80DF11D8081803321F4C7
S11319E09A2D997EA92E09C0A2FE06C0B394B39481
S11319F004C08A2D867809F0B394A3FC11C0A0FE1C
S1131A0006C0B21488F4280C922C9B180EC0B21491
S1131A1060F4B60180E290E00E94740DB394F7CFB5
S1131A20B21418F42B1802C0982C212CA4FE10C058
S1131A30B60180E390E00E94740DA2FE17C0A1FCE1
S1131A4003C088E790E002C088E590E0B6010CC0CE
S1131A508A2D867859F0A1FE02C08BE201C080E293
S1131A60A7FC8DE2B60190E00E94740D891438F44D
S1131A70B60180E390E00E94740D9A94F7CF8A94A3
S1131A80F301E80DF11D8081B60190E00E94740D10
S1131A908110F5CF222009F442CEB60180E290E015
S1131AA00E94740D2A94F6CFF6018681978102C0B4
S1131AB08FEF9FEF2B96E2E10C942A0EFC01059028
S1131AC0615070400110D8F7809590958E0F9F1F3C
S1131AD00895FC016150704001900110D8F7809581
S1131AE090958E0F9F1F08950F931F93CF93DF93AD
S1131AF0FB01238121FD03C08FEF9FEF2CC022FF48
S1131B0016C046815781248135814217530744F416
S1131B10A081B1819D012F5F3F4F318320838C933E
S1131B20268137812F5F3F4F3783268314C08B0173
S1131B30EC01FB010084F185E02D0995892BE1F688
S1131B40D80116968D919C911797019617969C93A0
S1131B508E931697CE01DF91CF911F910F91089527
S1131B60FA01AA27283051F1203181F1E8946F93CA
S1131B706E7F6E5F7F4F8F4F9F4FAF4FB1E03ED070
S1131B80B4E03CD0670F781F891F9A1FA11D680F0E
S1131B90791F8A1F911DA11D6A0F711D811D911D41
S1131BA0A11D20D009F468943F912AE0269F1124B6
S1131BB03019305D3193DEF6CF010895462F47701A
S1131BC0405D4193B3E00FD0C9F7F6CF462F4F7075
S1131BD0405D4A3318F0495D31FD4052419302D0D3
S1131BE0A9F7EACFB4E0A695979587957795679579
S1131BF0BA95C9F700976105710508959B01AC0179
S1131C000A2E06945795479537952795BA95C9F79F
S1131C10620F731F841F951FA01D08952F923F927A
S1131C204F925F926F927F928F929F92AF92BF92E8
S1131C30CF92DF92EF92FF920F931F93CF93DF9394
S1131C40CDB7DEB7CA1BDB0B0FB6F894DEBF0FBEF1
S1131C50CDBF09942A88398848885F846E847D843E
S1131C608C849B84AA84B984C884DF80EE80FD8040
S1131C700C811B81AA81B981CE0FD11D0FB6F894B6
S1111C80DEBF0FBECDBFED010895F894FFCF77
S1131C8E313233000000000000000506040000019C
S1131C9E050607010101312D205369676E20496E37
S1131CAE00322D204C6F6720496E0048656C6C6FB6
S1131CBE203A290057656C636F6D6520746F20564A
S1131CCE53002020202053797374656D00436F7286
S1131CDE726563742050617373776F726421004967
S1131CEE6E636F7272656374205061737321210089
S1131CFE596F75206578636565646564206D6178D8
S1131D0E006E756D626572206F6620747269616C07
S1131D1E73210053797374656D206973206C6F633E
S1131D2E6B65640054727920616761696E20696E17
S1131D3E00256400456E7465722070617373776F4D
S1131D4E7264203A005265656E7465722075722055
S1131D5E70617373004368616E67652050617373BD
S1131D6E776F7264203A0050617373776F726420D8
S1131D7E6C656E203C20380054727920616761696D
S1131D8E6E0042616C616E6365203A005741524E9B
S1131D9E494E47210043414E275420574954484445
S1131DAE524157005375636365737366756C6C7932
S1131DBE0057697468647261776E203A2900456E23
S1131DCE746572207769746864726177616C00441B
S1131DDE65706F7369746564203A2900456E746585
S1131DEE72206465706F73697420616D6F756E74A3
S1131DFE3A00496E76616C696420496E70757400A0
S1131E0E506C656173652074727920616761696EC7
S1131E1E00312D204465706F736974204D6F6E65AB
S1131E2E7900322D205769746864726177204D6F82
S1131E3E6E657900332D20566965772042616C6199
S1131E4E6E636500342D204368616E6765205061B2
S1131E5E7373776F726400456E74657220757220A9
S1131E6E63686F6963653A002564256343003738F8
S1111E7E39F73435362A3132332D63303D2B9B
S9030000FC
