S012000041544D5F53595354454D2E73726563EC
S11300000C942A000C9447000C9447000C9447006D
S11300100C9447000C9447000C9447000C94470040
S11300200C9447000C9447000C9447000C94470030
S11300300C9447000C9447000C9447000C94470020
S11300400C9447000C9447000C9447000C94470010
S11300500C94470011241FBECFE5D8E0DEBFCDBF0E
S113006011E0A0E6B0E0E2EAF3E102C005900D92EF
S1130070A437B107D9F721E0A4E7B1E001C01D928C
S1130080AA37B207E1F70E94F8010C94CF090C9447
S113009000000E94DC020E9403020E94C50308952E
S11300A088E690E00E9488032FE78AE196E02150D9
S11300B080409040E1F700C000000E94950381E772
S11300C090E00E94880360E081E00E94990381E847
S11300D090E00E9488032FE78AE196E02150804057
S11300E09040E1F700C000000895FF920F931F9322
S11300F0CF93DF9300D000D0CDB7DEB710E088E710
S113010098E79A83898388E790E09C838B830E9495
S11301109503111105C08CE890E00E94880304C087
S11301208DE990E00E94880360E081E00E949903D9
S1130130F12C17C00E941402E1E0F0E0EC0FFD1F67
S1130140E00FF11F80830F2D10E0E1E0F0E0EC0FF1
S1130150FD1FE00FF11F8081883761F30E940C03BB
S1130160F39422E02F1578F78FE39DE023E081508C
S113017090402040E1F700C000000E94950360E633
S113018070E0CE0101960E948D06892B49F48DEA18
S113019090E00E94880380E00E94030410E008C0FD
S11301A08FEB90E00E94880381E00E94030411E039
S11301B0113009F4A4CF0F900F900F900F90DF919E
S11301C0CF911F910F91FF90089588E702C00E947C
S11301D014028837E1F30895FF920F931F93CF938E
S11301E0DF93CDB7DEB760970FB6F894DEBF0FBECE
S11301F0CDBF80ED90E00E9488031A821982FE012F
S113020033968EE0DF011D928A95E9F760E081E084
S11302100E949903F12C0F2D10E00E94E500E1E00B
S1130220F0E0EC0FFD1FE00FF11F80838D3311F020
S11302300E940C03F394E1E0F0E0EC0FFD1FE00FEB
S1130240F11F80818D3339F7EF2DF0E0319781E094
S113025090E08C0F9D1FE80FF91F10820E949503F8
S113026086EE90E00E94880343EF50E060E081E076
S11302700E94BA034AE050E060E070E0CE010196CB
S11302800E946E05092E000CAA0BBB0B4091740151
S1130290509175016091760170917701840F951FDB
S11302A0A61FB71F8093740190937501A0937601E4
S11302B0B093770160960FB6F894DEBF0FBECDBF42
S11302C0DF91CF911F910F91FF9008959F938F938A
S11302D07F936F9380E091E09F938F935F934F930D
S11302E00E9496068DB79EB708960FB6F8949EBFE7
S11302F00FBE8DBF0895CF93DF93CDB7DEB7609760
S11303000FB6F894DEBF0FBECDBF83E091E00E942C
S113031088036091740170917501809176019091C8
S11303207701AE014F5F5F4F0E946601AE014F5FE0
S11303305F4F60E081E00E94BA0360960FB6F894C4
S1130340DEBF0FBECDBFDF91CF910895CF934CE0B8
S113035051E060E080E00E94BA034DE151E060E0CA
S113036081E00E94BA032FED83E994E0215080409C
S11303709040E1F700C000000E9495034FE251E075
S113038060E080E00E94BA034FE351E060E081E066
S11303900E94BA032FED83E994E0215080409040FD
S11303A0E1F700C000000E94950382E591E00E94FD
S11303B088030E94E500C82F482F60E081E00E9476
S11303C0B1032FE986E891E0215080409040E1F7A5
S11303D000C000000E949503C13319F0C33321F01B
S11303E005C00E94EC0002C00E947B01CF910895D9
S11303F00E9449000E9450000E9475000E94A601BC
S113040080E090E0089560E080E00E944E056FE097
S113041080E00E945E056FE081E00E944E056FE07F
S113042081E00E945E050895CF93DF936FE081E041
S11304300E945E056FE080E00E945E05D0E03AC055
S113044040E06D2F81E00E948504C0E02BC06C2F3A
S113045080E00E94F504811124C083EC99E00197A7
S1130460F1F700C000006C2F80E00E94F5048111B8
S113047018C004C06C2F80E00E94F5048823D1F3D7
S113048041E06D2F81E00E948504EC2FF0E0EE0F37
S1130490FF1FEE0FFF1FED59FE4FED0FF11D808181
S11304A00CC0CF5FC43098F241E06D2F81E00E9410
S11304B08504DF5FD43020F288E7DF91CF9108957F
S11304C0CF93C82F40E065E083E00E94850440E0BC
S11304D066E083E00E9485044C2F417060E082E076
S11304E00E9485044C2F427050E05595479561E079
S11304F082E00E9485044C2F447050E05595479546
S11305005595479562E082E00E9485044C2F48701F
S113051050E055954795559547955595479563E012
S113052082E00E9485044C2F407150E05595479518
S113053055954795559547955595479564E082E0BF
S11305400E9485044C2F407250E05595479555956F
S1130550479555954795559547955595479565E024
S113056082E00E9485044C2F407450E0042E452FF5
S1130570000C441F550B000C441F551F66E082E01D
S11305800E9485044C2F441F4427441F67E082E0E7
S11305900E94850441E067E083E00E94850483EFC4
S11305A091E00197F1F700C0000040E067E083E0CC
S11305B00E948504CF9108956FEF82E00E944E055A
S11305C06FEF83E00E944E0584E68A95F1F788E395
S11305D00E94600289EF90E00197F1F700C00000EB
S11305E08FE00E94600283EF91E00197F1F700C071
S11305F0000081E00E94600281EE94E00197F1F72F
S113060000C0000086E00E94600281EE94E0019741
S1130610F1F700C000000895CF93C82F41E065E0D2
S113062083E00E94850440E066E083E00E94850444
S11306304C2F417060E082E00E9485044C2F427090
S113064050E05595479561E082E00E9485044C2F67
S1130650447050E0559547955595479562E082E082
S11306600E9485044C2F487050E055954795559548
S113067047955595479563E082E00E9485044C2F89
S1130680407150E055954795559547955595479533
S11306905595479564E082E00E9485044C2F407292
S11306A050E05595479555954795559547955595DA
S11306B047955595479565E082E00E9485044C2F47
S11306C0407450E0042E452F000C441F550B000CC1
S11306D0441F551F66E082E00E9485044C2F441F8E
S11306E04427441F67E082E00E94850441E067E0FC
S11306F083E00E94850483EF91E00197F1F700C045
S1130700000040E067E083E00E948504CF910895F3
S1130710CF93DF93EC0103C00E940C0321968881E0
S11307208111FACFDF91CF91089581E00E94600298
S11307300895683208F067E2823008F080E0882388
S113074029F0813011F060E001C0605C862F806880
S11307500E94600289EF90E00197F1F700C0000069
S11307600895CF93C42F0E9499038C2F0E940C03E9
S1130770CF910895CF93DF93EA010E949903CE01AC
S11307800E948803DF91CF910895EF92FF921F9307
S1130790CF93DF9310E015C0C12FD0E0CE018C5968
S11307A09F4F7C01CA59DF4F41E0FC016081888181
S11307B00E94150440E0F701608188810E9485044D
S11307C01F5F123048F3DF91CF911F91FF90EF909C
S11307D0089590E0FC01EC59FF4FDC01AA59BF4F8A
S11307E041E060818C910E948504089590E0FC01B1
S11307F0EC59FF4FDC01AA59BF4F40E060818C9156
S11308000E9485040895CF93C82F0E94E9032FEB1B
S113081087E299E0215080409040E1F700C0000059
S11308208C2F0E94F603CF9108954130A1F58130B9
S113083089F028F08230C9F0833011F108952AB389
S113084081E090E002C0880F991F6A95E2F7822B3D
S11308508ABB089527B381E090E002C0880F991FF6
S11308606A95E2F7822B87BB089524B381E090E078
S113087002C0880F991F6A95E2F7822B84BB089502
S113088021B381E090E002C0880F991F6A95E2F7D6
S1130890822B81BB0895411137C0813091F028F03B
S11308A08230D9F0833029F108952AB381E090E0B1
S11308B002C0880F991F6A95E2F7809582238ABB4C
S11308C0089527B381E090E002C0880F991F6A95CC
S11308D0E2F78095822387BB089524B381E090E0FA
S11308E002C0880F991F6A95E2F78095822384BB22
S11308F0089521B381E090E002C0880F991F6A95A2
S1130900E2F78095822381BB08954130A1F58130BF
S113091089F028F08230C9F0833011F108952BB3A7
S113092081E090E002C0880F991F6A95E2F7822B5C
S11309308BBB089528B381E090E002C0880F991F13
S11309406A95E2F7822B88BB089525B381E090E095
S113095002C0880F991F6A95E2F7822B85BB089520
S113096022B381E090E002C0880F991F6A95E2F7F4
S1130970822B82BB0895411137C0813091F028F059
S11309808230D9F0833029F108952BB381E090E0CF
S113099002C0880F991F6A95E2F7809582238BBB6A
S11309A0089528B381E090E002C0880F991F6A95EA
S11309B0E2F78095822388BB089525B381E090E017
S11309C002C0880F991F6A95E2F78095822385BB40
S11309D0089522B381E090E002C0880F991F6A95C0
S11309E0E2F78095822382BB08958130D1F028F00C
S11309F0823059F18330E9F150C049B381E090E08D
S1130A009C01062E02C0220F331F0A94E2F7842FA2
S1130A1090E08223932302C0959587956A95E2F727
S1130A20089546B381E090E09C01062E02C0220F97
S1130A30331F0A94E2F7842F90E08223932302C0A9
S1130A40959587956A95E2F7089543B381E090E020
S1130A509C01062E02C0220F331F0A94E2F7842F52
S1130A6090E08223932302C0959587956A95E2F7D7
S1130A70089540B381E090E09C01062E02C0220F4D
S1130A80331F0A94E2F7842F90E08223932302C059
S1130A90959587956A95E2F708950895813041F018
S1130AA028F0823039F0833039F008956ABB089514
S1130AB067BB089564BB089561BB0895813041F01C
S1130AC028F0823039F0833039F008956BBB0895F3
S1130AD068BB089565BB089562BB0895A0E0B0E0CB
S1130AE0E4E7F5E00C948A095C016B017A01611575
S1130AF0710519F0FB0191838083E114F10429F05D
S1130B00C7010297839708F0E5C0E5012196F50136
S1130B101081812F90E00E948406892B11F05E01E0
S1130B20F4CF1D3229F42196F501118101E007C0AB
S1130B301B3221F4E5012296F501118100E0E11454
S1130B40F10409F1F0E1EF16F10429F43FC010E3D8
S1130B50E114F10421F128E0E216F10401F154F466
S1130B60E2E0EE16F10421F5812C912CA12CB0E4E5
S1130B70BB2E3EC0FAE0EF16F10439F020E1E21694
S1130B80F104B1F430C0103319F1FAE0EF2EF12C76
S1130B90ACEC8A2E982CA82CACE0BA2E29C078E0B4
S1130BA0E72EF12C812C912CA12CE0E1BE2E20C04B
S1130BB060E070E080E090E897010F2C000C440B9B
S1130BC0550B0E945C0949015A0112C0103359F4B3
S1130BD088818F7D883509F0BACF19812296026009
S1130BE080E1E82EF12C812C912CA12C68E0B62E0A
S1130BF040E060E070E0CB0127010F2C000C660898
S1130C007708FE0150ED352E310E29E0231570F4DE
S1130C102FEB210F2A3118F439EC332E06C02FE9BB
S1130C20210F2A3118F529EA322E310E232D30E016
S1130C302E153F05DCF447FD16C086169706A80658
S1130C40B90670F0A30192010E944C09630D711D55
S1130C50811D911D61307105810520E8920710F016
S1130C604FEF01C041E021961081CBCF202F21709E
S1130C70C114D10471F0442329F02197F601D183E2
S1130C80C08307C001FF19C02297F601D183C08336
S1130C9014C047FF12C0222329F060E070E080E016
S1130CA090E804C06FEF7FEF8FEF9FE722E230E020
S1130CB0309379012093780109C0222381F0909523
S1130CC08095709561957F4F8F4F9F4F462F372F9B
S1130CD0282F12C040E030E020E090E00DC097FFE4
S1130CE0F5CF82E290E090937901809378016FEFE1
S1130CF07FEF8FEF9FE7EACF642F732F822FCDB75B
S1130D00DEB7E1E10C94A60991110C9499088032A4
S1130D1019F089508550C8F70895FB01DC018D91C5
S1130D20019080190110D9F3990B0895AEE0B0E059
S1130D30ECE9F6E00C9497090D891E8986E08C8312
S1130D401A8309838FEF9FE79E838D83AE01475EED
S1130D505F4F6F89788DCE0101960E94B806EF81AE
S1130D60F885E00FF11F10822E96E4E00C94B3098D
S1130D70ABE0B0E0EEEBF6E00C9489096C017B018A
S1130D808A01FC0117821682838181FFCCC1CE01C6
S1130D9001963C01F6019381F70193FD859193FF40
S1130DA081917F01882309F4BAC1853239F493FD16
S1130DB0859193FF81917F01853229F4B60190E0FA
S1130DC00E94B208E7CF912C212C312CFFE1F315BE
S1130DD0D8F08B3279F038F4803279F08332A1F490
S1130DE0232D20611DC08D3261F0803369F4232DE1
S1130DF0216016C0832D8260382EE32DE4603E2EE0
S1130E002AC0F32DF8601DC037FC2DC020ED280F3B
S1130E102A3040F08E32B9F436FC81C1232D20648F
S1130E20322E19C036FE06C08AE0989E200D112489
S1130E30922E11C0EAE02E9E200D1124222EF32DB5
S1130E40F0623F2E08C08C3621F4832D8068382E42
S1130E5002C0883641F4F70193FD859193FF819197
S1130E607F018111B3CF982F9F7D9554933028F43F
S1130E700C5F1F4F9FE399830DC0833631F0833796
S1130E8071F0833509F059C021C0F801808189834C
S1130E900E5F1F4F88248394912C530113C02801A3
S1130EA0F2E04F0E511CF801A080B18036FE03C061
S1130EB0692D70E002C06FEF7FEFC5010E94A708A3
S1130EC04C018201F32DFF773F2E16C0280122E04A
S1130ED0420E511CF801A080B18036FE03C0692D7A
S1130EE070E002C06FEF7FEFC5010E949C084C01C7
S1130EF0F32DF0683F2E820133FC1BC0822D90E05D
S1130F0088169906B0F4B60180E290E00E94B20817
S1130F102A94F4CFF50137FC859137FE81915F0166
S1130F20B60190E00E94B20821102A9421E0821AAE
S1130F3091088114910471F7E8C0843611F0893660
S1130F4041F5F80137FE07C0608171818281938188
S1130F500C5F1F4F08C060817181072E000C880B45
S1130F60990B0E5F1F4FF32DFF763F2E97FF09C09D
S1130F7090958095709561957F4F8F4F9F4FF06846
S1130F803F2E2AE030E0A3010E94EE08882E861846
S1130F9045C0853731F4232D2F7EB22E2AE030E070
S1130FA025C0932D997FB92E8F36C1F018F488355A
S1130FB079F0B5C0803719F0883721F0B0C0E92F37
S1130FC0E061BE2EB4FE0DC0FB2DF460BF2E09C03F
S1130FD034FE0AC0292F2660B22E06C028E030E075
S1130FE005C020E130E002C020E132E0F801B7FEA4
S1130FF007C060817181828193810C5F1F4F06C09D
S11310006081718180E090E00E5F1F4FA3010E9418
S1131010EE08882E8618FB2DFF773F2E36FE0DC076
S1131020232D2E7FA22E891458F434FE0BC032FCDB
S113103009C0832D8E7EA82E05C0B82CA32C03C016
S1131040B82C01C0B92CA4FE0FC0FE01E80DF11D9F
S11310508081803321F49A2D997EA92E09C0A2FEA5
S113106006C0B394B39404C08A2D867809F0B3946F
S1131070A3FC11C0A0FE06C0B21488F4280C922C64
S11310809B180EC0B21460F4B60180E290E00E9496
S1131090B208B394F7CFB21418F42B1802C0982CEA
S11310A0212CA4FE10C0B60180E390E00E94B20897
S11310B0A2FE17C0A1FC03C088E790E002C088E547
S11310C090E0B6010CC08A2D867859F0A1FE02C0CA
S11310D08BE201C080E2A7FC8DE2B60190E00E94A1
S11310E0B208891438F4B60180E390E00E94B20893
S11310F09A94F7CF8A94F301E80DF11D8081B6012B
S113110090E00E94B2088110F5CF222009F442CE6B
S1131110B60180E290E00E94B2082A94F6CFF6016C
S11311208681978102C08FEF9FEF2B96E2E10C94AA
S1131130A509992788270895FC01059061507040FE
S11311400110D8F7809590958E0F9F1F0895FC018C
S11311506150704001900110D8F7809590958E0FE2
S11311609F1F08950F931F93CF93DF93FB01238158
S113117021FD03C08FEF9FEF2CC022FF16C04681D4
S11311805781248135814217530744F4A081B181EA
S11311909D012F5F3F4F318320838C9326813781BC
S11311A02F5F3F4F3783268314C08B01EC01FB0173
S11311B00084F185E02D0995892BE1F6D801169676
S11311C08D919C911797019617969C938E931697E1
S11311D0CE01DF91CF911F910F910895FA01AA27B3
S11311E0283051F1203181F1E8946F936E7F6E5F66
S11311F07F4F8F4F9F4FAF4FB1E03ED0B4E03CD014
S1131200670F781F891F9A1FA11D680F791F8A1FF6
S1131210911DA11D6A0F711D811D911DA11D20D05D
S113122009F468943F912AE0269F11243019305D17
S11312303193DEF6CF010895462F4770405D419308
S1131240B3E00FD0C9F7F6CF462F4F70405D4A3355
S113125018F0495D31FD4052419302D0A9F7EACF1D
S1131260B4E0A6959795879577956795BA95C9F74C
S113127000976105710508959B01AC010A2E06943F
S11312805795479537952795BA95C9F7620F731FF8
S1131290841F951FA01D0895DB018F939F930E94C7
S11312A07E09BF91AF91A29F800D911DA39F900DC8
S11312B0B29F900D11240895A1E21A2EAA1BBB1B04
S11312C0FD010DC0AA1FBB1FEE1FFF1FA217B3070E
S11312D0E407F50720F0A21BB30BE40BF50B661F24
S11312E0771F881F991F1A9469F7609570958095E8
S11312F090959B01AC01BD01CF0108950E94C009E6
S1131300A59F900DB49F900DA49F800D911D112455
S113131008952F923F924F925F926F927F928F9295
S11313209F92AF92BF92CF92DF92EF92FF920F9370
S11313301F93CF93DF93CDB7DEB7CA1BDB0B0FB67A
S1131340F894DEBF0FBECDBF09942A883988488837
S11313505F846E847D848C849B84AA84B984C884CD
S1131360DF80EE80FD800C811B81AA81B981CE0FC4
S1131370D11D0FB6F894DEBF0FBECDBFED010895A9
S1131380A29FB001B39FC001A39F700D811D1124C2
S1131390911DB29F700D811D1124911D0895F89423
S10513A0FFCF79
S11313A2313233000506010148656C6C6F203A291D
S11313B200202057656C636F6D6520746F2056534F
S11313C2002020202053797374656D00456E746586
S11313D2722070617373776F7264203A005265658C
S11313E26E746572207572207061737300436F723C
S11313F2726563742050617373776F72642100495C
S11314026E636F727265637420506173732121007D
S1131412456E746572206465706F73697420616DC2
S11314226F756E743A005375636365737366756C96
S11314326C79004465706F7369746564203A29009D
S113144225640042616C616E63653D00312D204468
S113145265706F736974204D6F6E657900322D204B
S11314625769746864726177204D6F6E65790033D1
S11314722D20566965772042616C616E6365003484
S11314822D204368616E67652050617373776F72B4
S11314926400456E7465722075722063686F6963B7
S11314A2653A00373839F73435362A3132332D6309
S10714B2303D2B009A
S9030000FC
