S012000041544D5F53595354454D2E73726563EC
S11300000C942A000C94AD070C94D6070C94FF07AB
S11300100C9447000C9447000C9447000C94470040
S11300200C9447000C9447000C9447000C94470030
S11300300C9447000C9447000C9447000C94470020
S11300400C9447000C9447000C9447000C94470010
S11300500C94470011241FBECFE5D8E0DEBFCDBF0E
S113006011E0A0E6B0E0E4E9F6E102C005900D92EB
S1130070A63EB107D9F721E0A6EEB1E001C01D927A
S1130080A03FB207E1F70E94BD030C94480B0C9407
S113009000000E94E6040E940D040E94CF050E9405
S11300A0D303089586E790E00E9492052FE78AE142
S11300B096E0215080409040E1F700C000000E948B
S11300C09F058FE790E00E94920560E081E00E9426
S11300D0A3058FE890E00E9492052FE78AE196E05D
S11300E0215080409040E1F700C0000008950F9334
S11300F01F93CF93DF93082F162FC42FD0E012C085
S1130100812F0E940D06802F0E94EB0380E007C020
S1130110E7EAF1E63197F1F700C000008F5F8C1732
S1130120B8F3DF5FD83060F3DF91CF911F910F9167
S113013008958AE990E00E94920542E060E081E03F
S11301400E94770008958CEA90E00E94920544E0B2
S113015061E080E00E9477000895FF920F931F935F
S1130160CF93DF9300D000D0CDB7DEB710E088E79F
S113017098E79A83898388E790E09C838B830E9425
S11301809F05111105C08DEB90E00E94920504C0FB
S11301908EEC90E00E94920560E081E00E94A3054D
S11301A0F12C17C00E941E04E1E0F0E0EC0FFD1FEB
S11301B0E00FF11F80830F2D10E0E1E0F0E0EC0F81
S11301C0FD1FE00FF11F8081883761F30E9416053F
S11301D0F39422E02F1578F78FE39DE023E081501C
S11301E090402040E1F700C000000E949F0560E6B7
S11301F070E0CE0101960E944608892B21F40E94EA
S1130200990010E003C00E94A30011E0113009F42A
S1130210AECF0F900F900F900F90DF91CF911F9161
S11302200F91FF90089588E702C00E941E0488374A
S1130230E1F30895EF92FF920F931F93CF93DF930F
S1130240CDB7DEB72A970FB6F894DEBF0FBECDBF89
S113025021E08CEB90E08B87222381F04EED50E07F
S113026060E082E00E94C4052FE38DE093E021501A
S113027080409040E1F700C0000015C040EF50E01E
S113028060E080E00E94C4052FEB87E299E02150F2
S113029080409040E1F700C000000E949F0581E08B
S11302A091E00E94920560E081E00E94A305F12C98
S11302B0E12C0DC00E941301E1E0F0E0EC0FFD1F02
S11302C0E00FF11F8083F3940E941605E3940F2D31
S11302D010E0F801319781E090E08C0F9D1FE80F4A
S11302E0F91F80818D3331F70E949F05E1E0F0E032
S11302F0EC0FFD1FE00FF11F10828E2D90E001978F
S113030021E0883091050CF420E008970CF4A1CF8B
S1130310BE016F5F7F4F80E690E00E944F082A96EF
S11303200FB6F894DEBF0FBECDBFDF91CF911F9102
S11303300F91FF90EF9008959F938F937F936F9306
S11303408BE091E09F938F935F934F930E945E089D
S11303508DB79EB708960FB6F8949EBF0FBE8DBF9B
S11303600895CF93DF93CDB7DEB760970FB6F894B7
S1130370DEBF0FBECDBF8EE091E00E94920560917A
S1130380E6017091E7018091E8019091E901AE01E5
S11303904F5F5F4F0E949C01AE014F5F5F4F60E073
S11303A081E00E94C4052FE78AE196E02150804055
S11303B09040E1F700C0000060960FB6F894DEBFED
S11303C00FBECDBFDF91CF910895CF93DF93FC0192
S11303D060E070E002C06F5F7F4FDF01A60FB71FC0
S11303E09C919032C1F39D3229F46F5F7F4FCFEF20
S11303F0DFEF09C09B3229F46F5F7F4FC1E0D0E08B
S113040002C0C1E0D0E020E030E013C0A901440FF5
S1130410551F220F331F220F331F220F331F420F8A
S1130420531F292F30E020533109240F351F6F5FEC
S11304307F4FDF01A60FB71F9C9180ED890F8A3093
S113044028F32C9FB0012D9F700D3C9F700D11243B
S1130450072E000C880B990BDF91CF91089588E14A
S113046091E00E94920541E251E060E081E00E9447
S1130470C40542E061E080E00E9477000895CF93D4
S113048080E391E00E9492054DE351E060E081E059
S11304900E94C405C0E008C048EC50E060E070E091
S11304A082E00E941D06CF5FC330B0F3CF91089560
S11304B0CF92DF92EF92FF920F931F93CF93DF932C
S11304C0CDB7DEB760970FB6F894DEBF0FBECDBFD1
S11304D01A821982FE0133968EE0DF011D928A95FD
S11304E0E9F78AE491E00E94920546E751E060E072
S11304F081E00E94C40567E081E00E94A305F12C1D
S11305000F2D10E00E941301E1E0F0E0EC0FFD1F5D
S1130510E00FF11F80838D3311F00E941605F394D0
S1130520E1E0F0E0EC0FFD1FE00FF11F80818D335F
S113053039F7EF2DF0E03197CC24C394D12CCC0EB5
S1130540DD1EEC0DFD1D10820E949F05C6010E9458
S1130550E5010091E6011091E7012091E801309155
S1130560E901061717072807390718F40E942F0214
S113057010C068017901C61AD70AE80AF90AC092BC
S1130580E601D092E701E092E801F092E9010E94CD
S11305903F022FE38DE093E0215080409040E1F74B
S11305A000C0000060960FB6F894DEBF0FBECDBF4A
S11305B0DF91CF911F910F91FF90EF90DF90CF903B
S11305C0089580E391E00E9492054BE551E060E0DC
S11305D081E00E94C40543E062E082E00E9477006B
S11305E00895FF920F931F93CF93DF93CDB7DEB798
S11305F02A970FB6F894DEBF0FBECDBF1A821982B8
S1130600FE01339688E0DF011D928A95E9F788E6BA
S113061091E00E94920560E081E00E94A305F12C24
S11306200F2D10E00E941301E1E0F0E0EC0FFD1F3C
S1130630E00FF11F80838D3311F00E941605F394AF
S1130640E1E0F0E0EC0FFD1FE00FF11F80818D333E
S113065039F7EF2DF0E0319781E090E08C0F9D1F8A
S1130660E80FF91F10820E949F05CE0101960E9497
S11306702808092E000CAA0BBB0B4091E6015091EF
S1130680E7016091E8017091E901840F951FA61FAD
S1130690B71F8093E6019093E701A093E801B0931C
S11306A0E9010E94E1022A960FB6F894DEBF0FBE5C
S11306B0CDBFDF91CF911F910F91FF900895CF93FC
S11306C04EE751E060E080E00E94C4054FE851E04D
S11306D060E081E00E94C4052FED83E994E021509D
S11306E080409040E1F700C000000E949F0541EA6D
S11306F051E060E080E00E94C40541EB51E060E01D
S113070081E00E94C4052FED83E994E021508040EC
S11307109040E1F700C000000E949F0584EC91E046
S11307200E9492050E941301C82F482F60E081E0C7
S11307300E94BB052FE986E891E02150804090405B
S1130740E1F700C000000E949F05C23361F018F475
S1130750C13331F010C0C33349F0C43351F00BC07E
S11307600E94F10208C00E94580205C00E94B10113
S113077002C00E941A01CF9108950E9449000E946C
S113078052000E94AD000E945F03FDCF90E0FC0187
S1130790E659FF4FDC01A359BF4F40E060818C91C3
S11307A00E94C4060895CF93C0E011C08C2F90E03E
S11307B0FC01E659FF4FDC01A359BF4F41E06081C2
S11307C08C910E9454068C2F0E94C603CF5FC330C5
S11307D068F3CF910895823081F428B3E82FF0E0D4
S11307E0E659FF4F81E090E0008002C0880F991F16
S11307F00A94E2F7822788BB08952BB3E82FF0E030
S1130800E659FF4F81E090E0008002C0880F991FF5
S11308100A94E2F782278BBB089560E080E00E948F
S11308208D076FE080E00E949D076FE081E00E94E9
S11308308D076FE081E00E949D070895CF93DF93B9
S11308406FE081E00E949D076FE080E00E949D07B9
S1130850D0E03AC040E06D2F81E00E94C406C0E0C1
S11308602BC06C2F80E00E943407811124C083ECDC
S113087099E00197F1F700C000006C2F80E00E941E
S11308803407811118C004C06C2F80E00E94340723
S11308908823D1F341E06D2F81E00E94C406EC2F40
S11308A0F0E0EE0FFF1FEE0FFF1FEB52FE4FED0FB8
S11308B0F11D80810CC0CF5FC43098F241E06D2FF0
S11308C081E00E94C406DF5FD43020F288E7DF9124
S11308D0CF910895CF93C82F40E065E083E00E9454
S11308E0C40640E066E083E00E94C4064C2F4170D9
S11308F060E082E00E94C4064C2F427050E055959F
S1130900479561E082E00E94C4064C2F447050E099
S1130910559547955595479562E082E00E94C40637
S11309204C2F487050E055954795559547955595EA
S1130930479563E082E00E94C4064C2F407150E06A
S1130940559547955595479555954795559547958B
S113095064E082E00E94C4064C2F407250E055953A
S1130960479555954795559547955595479555956B
S1130970479565E082E00E94C4064C2F407450E025
S1130980042E452F000C441F550B000C441F551F0B
S113099066E082E00E94C4064C2F441F4427441F93
S11309A067E082E00E94C40641E067E083E00E94C1
S11309B0C40683EF91E00197F1F700C0000040E026
S11309C067E083E00E94C406CF9108956FEF82E050
S11309D00E948D076FEF83E00E948D0784E68A955D
S11309E0F1F788E30E946A0489EF90E00197F1F738
S11309F000C000008FE00E946A0483EF91E0019739
S1130A00F1F700C0000081E00E946A0481EE94E0E6
S1130A100197F1F700C0000086E00E946A0481EEAD
S1130A2094E00197F1F700C000000895CF93C82F18
S1130A3041E065E083E00E94C40640E066E083E0B4
S1130A400E94C4064C2F417060E082E00E94C406FC
S1130A504C2F427050E05595479561E082E00E942A
S1130A60C4064C2F447050E05595479555954795CD
S1130A7062E082E00E94C4064C2F487050E0559515
S1130A804795559547955595479563E082E00E94B3
S1130A90C4064C2F407150E05595479555954795A0
S1130AA0559547955595479564E082E00E94C406A4
S1130AB04C2F407250E0559547955595479555955F
S1130AC04795559547955595479565E082E00E9471
S1130AD0C4064C2F407450E0042E452F000C441FD4
S1130AE0550B000C441F551F66E082E00E94C406AB
S1130AF04C2F441F4427441F67E082E00E94C40631
S1130B0041E067E083E00E94C40683EF91E001972F
S1130B10F1F700C0000040E067E083E00E94C406F3
S1130B20CF910895CF93DF93EC0103C00E94160583
S1130B30219688818111FACFDF91CF91089581E0C8
S1130B400E946A040895683208F067E2823008F06F
S1130B5080E0882329F0813011F060E001C0605CFE
S1130B60862F80680E946A0489EF90E00197F1F76C
S1130B7000C000000895CF93C42F0E94A3058C2FBA
S1130B800E941605CF910895CF93DF93EA010E9446
S1130B90A305CE010E949205DF91CF910895EF92B3
S1130BA0FF921F93CF93DF9310E015C0C12FD0E0C5
S1130BB0CE0180599F4F7C01CD58DF4F41E0FC01AD
S1130BC0608188810E94540640E0F7016081888139
S1130BD00E94C4061F5F133048F3DF91CF911F9129
S1130BE0FF90EF90089590E0FC01E059FF4FDC0185
S1130BF0AD58BF4F41E060818C910E94C4060895B6
S1130C0090E0FC01E059FF4FDC01AD58BF4F40E0DC
S1130C1060818C910E94C406089528B3E82FF0E007
S1130C20E059FF4F81E090E0008002C0880F991FD7
S1130C300A94E2F7822788BB0895CF92DF92EF925D
S1130C40FF92CF93C82F6A017B010E94F30580E0D5
S1130C5007C0E9EFF0E03197F1F700C000008F5FC3
S1130C60482F50E060E070E04C155D056E057F058F
S1130C7080F38C2F0E94000680E007C0E9EFF0E0CB
S1130C803197F1F700C000008F5F482F50E060E01B
S1130C9070E04C155D056E057F0580F3CF91FF90E4
S1130CA0EF90DF90CF9008954130A1F5813089F025
S1130CB028F08230C9F0833011F108952AB381E01D
S1130CC090E002C0880F991F6A95E2F7822B8ABBD5
S1130CD0089527B381E090E002C0880F991F6A95B8
S1130CE0E2F7822B87BB089524B381E090E002C031
S1130CF0880F991F6A95E2F7822B84BB089521B36C
S1130D0081E090E002C0880F991F6A95E2F7822B78
S1130D1081BB0895411137C0813091F028F08230B1
S1130D20D9F0833029F108952AB381E090E002C01C
S1130D30880F991F6A95E2F7809582238ABB0895EC
S1130D4027B381E090E002C0880F991F6A95E2F70B
S1130D508095822387BB089524B381E090E002C08C
S1130D60880F991F6A95E2F78095822384BB0895C2
S1130D7021B381E090E002C0880F991F6A95E2F7E1
S1130D808095822381BB08954130A1F5813089F09B
S1130D9028F08230C9F0833011F108952BB381E03B
S1130DA090E002C0880F991F6A95E2F7822B8BBBF3
S1130DB0089528B381E090E002C0880F991F6A95D6
S1130DC0E2F7822B88BB089525B381E090E002C04E
S1130DD0880F991F6A95E2F7822B85BB089522B389
S1130DE081E090E002C0880F991F6A95E2F7822B98
S1130DF082BB0895411137C0813091F028F08230D0
S1130E00D9F0833029F108952BB381E090E002C03A
S1130E10880F991F6A95E2F7809582238BBB08950A
S1130E2028B381E090E002C0880F991F6A95E2F729
S1130E308095822388BB089525B381E090E002C0A9
S1130E40880F991F6A95E2F78095822385BB0895E0
S1130E5022B381E090E002C0880F991F6A95E2F7FF
S1130E608095822382BB08958130D1F028F08230AE
S1130E7059F18330E9F150C049B381E090E09C011D
S1130E80062E02C0220F331F0A94E2F7842F90E04B
S1130E908223932302C0959587956A95E2F7089576
S1130EA046B381E090E09C01062E02C0220F331F5E
S1130EB00A94E2F7842F90E08223932302C095954D
S1130EC087956A95E2F7089543B381E090E09C0129
S1130ED0062E02C0220F331F0A94E2F7842F90E0FB
S1130EE08223932302C0959587956A95E2F7089526
S1130EF040B381E090E09C01062E02C0220F331F14
S1130F000A94E2F7842F90E08223932302C09595FC
S1130F1087956A95E2F708950895813041F028F0A5
S1130F20823039F0833039F008956ABB089567BB85
S1130F30089564BB089561BB0895813041F028F0A1
S1130F40823039F0833039F008956BBB089568BB63
S1130F50089565BB089562BB08951F920F920FB662
S1130F600F9211242F933F934F935F936F937F932B
S1130F708F939F93AF93BF93EF93FF93E091EA0115
S1130F80F091EB01309709F00995FF91EF91BF9132
S1130F90AF919F918F917F916F915F914F913F910D
S1130FA02F910F900FBE0F901F9018951F920F92C4
S1130FB00FB60F9211242F933F934F935F936F9328
S1130FC07F938F939F93AF93BF93EF93FF93E0919E
S1130FD0EC01F091ED01309709F00995FF91EF9143
S1130FE0BF91AF919F918F917F916F915F914F913D
S1130FF03F912F910F900FBE0F901F9018951F9245
S11310000F920FB60F9211242F933F934F935F9338
S11310106F937F938F939F93AF93BF93EF93FF93BC
S1131020E091EE01F091EF01309709F00995FF91FD
S1131030EF91BF91AF919F918F917F916F915F914C
S11310404F913F912F910F900FBE0F901F901895C5
S1131050FC0188279927E89421912032E9F329306B
S113106010F02E30C8F32B3241F02D3239F468944D
S113107004C00E945608820F911D219120532A30EA
S1131080C0F31EF4909581959F4F0895FB01DC01F8
S11310908D91019080190110D9F3990B0895FB01EA
S11310A0DC0101900D920020E1F708957AE0979F0A
S11310B0902D879F802D910D11240895AEE0B0E00E
S11310C0E4E6F8E00C941F0B0D891E8986E08C83FE
S11310D01A8309838FEF9FE79E838D83AE01475E5A
S11310E05F4F6F89788DCE0101960E948008EF8151
S11310F0F885E00FF11F10822E96E4E00C943B0B70
S1131100ABE0B0E0E6E8F8E00C94110B6C017B0175
S11311108A01FC0117821682838181FFCCC1CE0132
S113112001963C01F6019381F70193FD859193FFAC
S113113081917F01882309F4BAC1853239F493FD82
S1131140859193FF81917F01853229F4B60190E066
S11311500E94770AE7CF912C212C312CFFE1F31563
S1131160D8F08B3279F038F4803279F08332A1F4FC
S1131170232D20611DC08D3261F0803369F4232D4D
S1131180216016C0832D8260382EE32DE4603E2E4C
S11311902AC0F32DF8601DC037FC2DC020ED280FA8
S11311A02A3040F08E32B9F436FC81C1232D2064FC
S11311B0322E19C036FE06C08AE0989E200D1124F6
S11311C0922E11C0EAE02E9E200D1124222EF32D22
S11311D0F0623F2E08C08C3621F4832D8068382EAF
S11311E002C0883641F4F70193FD859193FF819104
S11311F07F018111B3CF982F9F7D9554933028F4AC
S11312000C5F1F4F9FE399830DC0833631F0833702
S113121071F0833509F059C021C0F80180818983B8
S11312200E5F1F4F88248394912C530113C028010F
S1131230F2E04F0E511CF801A080B18036FE03C0CD
S1131240692D70E002C06FEF7FEFC5010E946C0A48
S11312504C018201F32DFF773F2E16C0280122E0B6
S1131260420E511CF801A080B18036FE03C0692DE6
S113127070E002C06FEF7FEFC5010E94610A4C016C
S1131280F32DF0683F2E820133FC1BC0822D90E0C9
S113129088169906B0F4B60180E290E00E94770ABD
S11312A02A94F4CFF50137FC859137FE81915F01D3
S11312B0B60190E00E94770A21102A9421E0821A54
S11312C091088114910471F7E8C0843611F08936CD
S11312D041F5F80137FE07C06081718182819381F5
S11312E00C5F1F4F08C060817181072E000C880BB2
S11312F0990B0E5F1F4FF32DFF763F2E97FF09C00A
S113130090958095709561957F4F8F4F9F4FF068B2
S11313103F2E2AE030E0A3010E94B30A882E8618EB
S113132045C0853731F4232D2F7EB22E2AE030E0DC
S113133025C0932D997FB92E8F36C1F018F48835C6
S113134079F0B5C0803719F0883721F0B0C0E92FA3
S1131350E061BE2EB4FE0DC0FB2DF460BF2E09C0AB
S113136034FE0AC0292F2660B22E06C028E030E0E1
S113137005C020E130E002C020E132E0F801B7FE10
S113138007C060817181828193810C5F1F4F06C009
S11313906081718180E090E00E5F1F4FA3010E9485
S11313A0B30A882E8618FB2DFF773F2E36FE0DC01C
S11313B0232D2E7FA22E891458F434FE0BC032FC48
S11313C009C0832D8E7EA82E05C0B82CA32C03C083
S11313D0B82C01C0B92CA4FE0FC0FE01E80DF11D0C
S11313E08081803321F49A2D997EA92E09C0A2FE12
S11313F006C0B394B39404C08A2D867809F0B394DC
S1131400A3FC11C0A0FE06C0B21488F4280C922CD0
S11314109B180EC0B21460F4B60180E290E00E9402
S1131420770AB394F7CFB21418F42B1802C0982C8F
S1131430212CA4FE10C0B60180E390E00E94770A3C
S1131440A2FE17C0A1FC03C088E790E002C088E5B3
S113145090E0B6010CC08A2D867859F0A1FE02C036
S11314608BE201C080E2A7FC8DE2B60190E00E940D
S1131470770A891438F4B60180E390E00E94770A71
S11314809A94F7CF8A94F301E80DF11D8081B60197
S113149090E00E94770A8110F5CF222009F442CE11
S11314A0B60180E290E00E94770A2A94F6CFF60112
S11314B08681978102C08FEF9FEF2B96E2E10C9417
S11314C02D0BFC010590615070400110D8F78095F8
S11314D090958E0F9F1F0895FC01615070400190FC
S11314E00110D8F7809590958E0F9F1F08950F9344
S11314F01F93CF93DF93FB01238121FD03C08FEF63
S11315009FEF2CC022FF16C046815781248135816C
S11315104217530744F4A081B1819D012F5F3F4FCF
S1131520318320838C93268137812F5F3F4F37830C
S1131530268314C08B01EC01FB010084F185E02DAE
S11315400995892BE1F6D80116968D919C911797F0
S1131550019617969C938E931697CE01DF91CF91A7
S11315601F910F910895FA01AA27283051F12031D3
S113157081F1E8946F936E7F6E5F7F4F8F4F9F4F23
S1131580AF4FB1E03ED0B4E03CD0670F781F891F65
S11315909A1FA11D680F791F8A1F911DA11D6A0F33
S11315A0711D811D911DA11D20D009F468943F91E6
S11315B02AE0269F11243019305D3193DEF6CF01E5
S11315C00895462F4770405D4193B3E00FD0C9F7AB
S11315D0F6CF462F4F70405D4A3318F0495D31FD18
S11315E04052419302D0A9F7EACFB4E0A69597956B
S11315F0879577956795BA95C9F700976105710541
S113160008959B01AC010A2E06945795479537958A
S11316102795BA95C9F7620F731F841F951FA01DE4
S113162008952F923F924F925F926F927F928F9282
S11316309F92AF92BF92CF92DF92EF92FF920F935D
S11316401F93CF93DF93CDB7DEB7CA1BDB0B0FB667
S1131650F894DEBF0FBECDBF09942A883988488824
S11316605F846E847D848C849B84AA84B984C884BA
S1131670DF80EE80FD800C811B81AA81B981CE0FB1
S1131680D11D0FB6F894DEBF0FBECDBFED01089596
S1071690F894FFCFF8
S1131694313233000000000000000506040000019C
S11316A405060701010148656C6C6F203A29002086
S11316B42057656C636F6D6520746F20565300204A
S11316C420202053797374656D00436F72726563CF
S11316D4742050617373776F72642100496E636F71
S11316E472726563742050617373212100456E74B2
S11316F465722070617373776F7264203A00526567
S1131704656E74657220757220706173730043682A
S1131714616E67652050617373776F7264203A0059
S113172450617373776F7264206C656E203C20384B
S11317340054727920616761696E00256400426116
S11317446C616E6365203A005741524E494E4721FD
S11317540043414E275420574954484452415700AA
S11317645375636365737366756C6C790057697438
S113177468647261776E203A2900456E746572203C
S11317847769746864726177616C004465706F731F
S113179469746564203A2900456E74657220646531
S11317A4706F73697420616D6F756E743A00312DB6
S11317B4204465706F736974204D6F6E65790032CF
S11317C42D205769746864726177204D6F6E657952
S11317D400332D20566965772042616C616E636520
S11317E400342D204368616E6765205061737377FC
S11317F46F726400456E7465722075722063686F3D
S11318046963653A00373839F73435362A31323367
S10918142D63303D2B00A2
S9030000FC
